{
  "contractName": "usingOraclize",
  "abi": [
    {
      "constant": false,
      "inputs": [
        {
          "name": "myid",
          "type": "bytes32"
        },
        {
          "name": "result",
          "type": "string"
        }
      ],
      "name": "__callback",
      "outputs": [],
      "payable": false,
      "stateMutability": "nonpayable",
      "type": "function"
    },
    {
      "constant": false,
      "inputs": [
        {
          "name": "myid",
          "type": "bytes32"
        },
        {
          "name": "result",
          "type": "string"
        },
        {
          "name": "proof",
          "type": "bytes"
        }
      ],
      "name": "__callback",
      "outputs": [],
      "payable": false,
      "stateMutability": "nonpayable",
      "type": "function"
    }
  ],
  "bytecode": "0x608060405234801561001057600080fd5b506101f9806100206000396000f30060806040526004361061004c576000357c0100000000000000000000000000000000000000000000000000000000900463ffffffff16806327dc297e1461005157806338bbfa50146100c8575b600080fd5b34801561005d57600080fd5b506100c66004803603810190808035600019169060200190929190803590602001908201803590602001908080601f0160208091040260200160405190810160405280939291908181526020018383808284378201915050505050509192919290505050610185565b005b3480156100d457600080fd5b506101836004803603810190808035600019169060200190929190803590602001908201803590602001908080601f0160208091040260200160405190810160405280939291908181526020018383808284378201915050505050509192919290803590602001908201803590602001908080601f01602080910402602001604051908101604052809392919081815260200183838082843782019150505050505091929192905050506101c8565b005b6101c4828260006040519080825280601f01601f1916602001820160405280156101be5781602001602082028038833980820191505090505b506101c8565b5050565b5050505600a165627a7a723058201cb16f8d73bccf9d70dfe93883dfbda38f70966e7a893586989fe4e545ca1bf10029",
  "source": "pragma solidity ^0.4.0;//please import oraclizeAPI_pre0.4.sol when solidity < 0.4.0\n\ncontract OraclizeI {\n    address public cbAddress;\n    function query(uint _timestamp, string _datasource, string _arg) payable returns (bytes32 _id);\n    function query_withGasLimit(uint _timestamp, string _datasource, string _arg, uint _gaslimit) payable returns (bytes32 _id);\n    function query2(uint _timestamp, string _datasource, string _arg1, string _arg2) payable returns (bytes32 _id);\n    function query2_withGasLimit(uint _timestamp, string _datasource, string _arg1, string _arg2, uint _gaslimit) payable returns (bytes32 _id);\n    function getPrice(string _datasource) returns (uint _dsprice);\n    function getPrice(string _datasource, uint gaslimit) returns (uint _dsprice);\n    function useCoupon(string _coupon);\n    function setProofType(byte _proofType);\n    function setConfig(bytes32 _config);\n    function setCustomGasPrice(uint _gasPrice);\n}\ncontract OraclizeAddrResolverI {\n    function getAddress() returns (address _addr);\n}\ncontract usingOraclize {\n    uint constant day = 60*60*24;\n    uint constant week = 60*60*24*7;\n    uint constant month = 60*60*24*30;\n    byte constant proofType_NONE = 0x00;\n    byte constant proofType_TLSNotary = 0x10;\n    byte constant proofStorage_IPFS = 0x01;\n    uint8 constant networkID_auto = 0;\n    uint8 constant networkID_mainnet = 1;\n    uint8 constant networkID_testnet = 2;\n    uint8 constant networkID_morden = 2;\n    uint8 constant networkID_consensys = 161;\n\n    OraclizeAddrResolverI OAR;\n\n    OraclizeI oraclize;\n    modifier oraclizeAPI {\n        if(address(OAR)==0) oraclize_setNetwork(networkID_auto);\n        oraclize = OraclizeI(OAR.getAddress());\n        _;\n    }\n    modifier coupon(string code){\n        oraclize = OraclizeI(OAR.getAddress());\n        oraclize.useCoupon(code);\n        _;\n    }\n\n    function oraclize_setNetwork(uint8 networkID) internal returns(bool){\n        if (getCodeSize(0x1d3b2638a7cc9f2cb3d298a3da7a90b67e5506ed)>0){ //mainnet\n            OAR = OraclizeAddrResolverI(0x1d3b2638a7cc9f2cb3d298a3da7a90b67e5506ed);\n            return true;\n        }\n        if (getCodeSize(0xc03a2615d5efaf5f49f60b7bb6583eaec212fdf1)>0){ //ropsten testnet\n            OAR = OraclizeAddrResolverI(0xc03a2615d5efaf5f49f60b7bb6583eaec212fdf1);\n            return true;\n        }\n        if (getCodeSize(0x20e12a1f859b3feae5fb2a0a32c18f5a65555bbf)>0){ //ether.camp ide\n            OAR = OraclizeAddrResolverI(0x20e12a1f859b3feae5fb2a0a32c18f5a65555bbf);\n            return true;\n        }\n        if (getCodeSize(0x93bbbe5ce77034e3095f0479919962a903f898ad)>0){ //norsborg testnet\n            OAR = OraclizeAddrResolverI(0x93bbbe5ce77034e3095f0479919962a903f898ad);\n            return true;\n        }\n        if (getCodeSize(0x51efaf4c8b3c9afbd5ab9f4bbc82784ab6ef8faa)>0){ //browser-solidity\n            OAR = OraclizeAddrResolverI(0x51efaf4c8b3c9afbd5ab9f4bbc82784ab6ef8faa);\n            return true;\n        }\n        return false;\n    }\n\n    function __callback(bytes32 myid, string result) {\n        __callback(myid, result, new bytes(0));\n    }\n    function __callback(bytes32 myid, string result, bytes proof) {\n    }\n\n    function oraclize_getPrice(string datasource) oraclizeAPI internal returns (uint){\n        return oraclize.getPrice(datasource);\n    }\n    function oraclize_getPrice(string datasource, uint gaslimit) oraclizeAPI internal returns (uint){\n        return oraclize.getPrice(datasource, gaslimit);\n    }\n\n    function oraclize_query(string datasource, string arg) oraclizeAPI internal returns (bytes32 id){\n        uint price = oraclize.getPrice(datasource);\n        if (price > 1 ether + tx.gasprice*200000) return 0; // unexpectedly high price\n        return oraclize.query.value(price)(0, datasource, arg);\n    }\n    function oraclize_query(uint timestamp, string datasource, string arg) oraclizeAPI internal returns (bytes32 id){\n        uint price = oraclize.getPrice(datasource);\n        if (price > 1 ether + tx.gasprice*200000) return 0; // unexpectedly high price\n        return oraclize.query.value(price)(timestamp, datasource, arg);\n    }\n    function oraclize_query(uint timestamp, string datasource, string arg, uint gaslimit) oraclizeAPI internal returns (bytes32 id){\n        uint price = oraclize.getPrice(datasource, gaslimit);\n        if (price > 1 ether + tx.gasprice*gaslimit) return 0; // unexpectedly high price\n        return oraclize.query_withGasLimit.value(price)(timestamp, datasource, arg, gaslimit);\n    }\n    function oraclize_query(string datasource, string arg, uint gaslimit) oraclizeAPI internal returns (bytes32 id){\n        uint price = oraclize.getPrice(datasource, gaslimit);\n        if (price > 1 ether + tx.gasprice*gaslimit) return 0; // unexpectedly high price\n        return oraclize.query_withGasLimit.value(price)(0, datasource, arg, gaslimit);\n    }\n    function oraclize_query(string datasource, string arg1, string arg2) oraclizeAPI internal returns (bytes32 id){\n        uint price = oraclize.getPrice(datasource);\n        if (price > 1 ether + tx.gasprice*200000) return 0; // unexpectedly high price\n        return oraclize.query2.value(price)(0, datasource, arg1, arg2);\n    }\n    function oraclize_query(uint timestamp, string datasource, string arg1, string arg2) oraclizeAPI internal returns (bytes32 id){\n        uint price = oraclize.getPrice(datasource);\n        if (price > 1 ether + tx.gasprice*200000) return 0; // unexpectedly high price\n        return oraclize.query2.value(price)(timestamp, datasource, arg1, arg2);\n    }\n    function oraclize_query(uint timestamp, string datasource, string arg1, string arg2, uint gaslimit) oraclizeAPI internal returns (bytes32 id){\n        uint price = oraclize.getPrice(datasource, gaslimit);\n        if (price > 1 ether + tx.gasprice*gaslimit) return 0; // unexpectedly high price\n        return oraclize.query2_withGasLimit.value(price)(timestamp, datasource, arg1, arg2, gaslimit);\n    }\n    function oraclize_query(string datasource, string arg1, string arg2, uint gaslimit) oraclizeAPI internal returns (bytes32 id){\n        uint price = oraclize.getPrice(datasource, gaslimit);\n        if (price > 1 ether + tx.gasprice*gaslimit) return 0; // unexpectedly high price\n        return oraclize.query2_withGasLimit.value(price)(0, datasource, arg1, arg2, gaslimit);\n    }\n    function oraclize_cbAddress() oraclizeAPI internal returns (address){\n        return oraclize.cbAddress();\n    }\n    function oraclize_setProof(byte proofP) oraclizeAPI internal {\n        return oraclize.setProofType(proofP);\n    }\n    function oraclize_setCustomGasPrice(uint gasPrice) oraclizeAPI internal {\n        return oraclize.setCustomGasPrice(gasPrice);\n    }\n    function oraclize_setConfig(bytes32 config) oraclizeAPI internal {\n        return oraclize.setConfig(config);\n    }\n\n    function getCodeSize(address _addr) constant internal returns(uint _size) {\n        assembly {\n            _size := extcodesize(_addr)\n        }\n    }\n\n\n    function parseAddr(string _a) internal returns (address){\n        bytes memory tmp = bytes(_a);\n        uint160 iaddr = 0;\n        uint160 b1;\n        uint160 b2;\n        for (uint i=2; i<2+2*20; i+=2){\n            iaddr *= 256;\n            b1 = uint160(tmp[i]);\n            b2 = uint160(tmp[i+1]);\n            if ((b1 >= 97)&&(b1 <= 102)) b1 -= 87;\n            else if ((b1 >= 48)&&(b1 <= 57)) b1 -= 48;\n            if ((b2 >= 97)&&(b2 <= 102)) b2 -= 87;\n            else if ((b2 >= 48)&&(b2 <= 57)) b2 -= 48;\n            iaddr += (b1*16+b2);\n        }\n        return address(iaddr);\n    }\n\n\n    function strCompare(string _a, string _b) internal returns (int) {\n        bytes memory a = bytes(_a);\n        bytes memory b = bytes(_b);\n        uint minLength = a.length;\n        if (b.length < minLength) minLength = b.length;\n        for (uint i = 0; i < minLength; i ++)\n            if (a[i] < b[i])\n                return -1;\n            else if (a[i] > b[i])\n                return 1;\n        if (a.length < b.length)\n            return -1;\n        else if (a.length > b.length)\n            return 1;\n        else\n            return 0;\n   }\n\n    function indexOf(string _haystack, string _needle) internal returns (int)\n    {\n        bytes memory h = bytes(_haystack);\n        bytes memory n = bytes(_needle);\n        if(h.length < 1 || n.length < 1 || (n.length > h.length))\n            return -1;\n        else if(h.length > (2**128 -1))\n            return -1;\n        else\n        {\n            uint subindex = 0;\n            for (uint i = 0; i < h.length; i ++)\n            {\n                if (h[i] == n[0])\n                {\n                    subindex = 1;\n                    while(subindex < n.length && (i + subindex) < h.length && h[i + subindex] == n[subindex])\n                    {\n                        subindex++;\n                    }\n                    if(subindex == n.length)\n                        return int(i);\n                }\n            }\n            return -1;\n        }\n    }\n\n    function strConcat(string _a, string _b, string _c, string _d, string _e) internal returns (string){\n        bytes memory _ba = bytes(_a);\n        bytes memory _bb = bytes(_b);\n        bytes memory _bc = bytes(_c);\n        bytes memory _bd = bytes(_d);\n        bytes memory _be = bytes(_e);\n        string memory abcde = new string(_ba.length + _bb.length + _bc.length + _bd.length + _be.length);\n        bytes memory babcde = bytes(abcde);\n        uint k = 0;\n        for (uint i = 0; i < _ba.length; i++) babcde[k++] = _ba[i];\n        for (i = 0; i < _bb.length; i++) babcde[k++] = _bb[i];\n        for (i = 0; i < _bc.length; i++) babcde[k++] = _bc[i];\n        for (i = 0; i < _bd.length; i++) babcde[k++] = _bd[i];\n        for (i = 0; i < _be.length; i++) babcde[k++] = _be[i];\n        return string(babcde);\n    }\n\n    function strConcat(string _a, string _b, string _c, string _d) internal returns (string) {\n        return strConcat(_a, _b, _c, _d, \"\");\n    }\n\n    function strConcat(string _a, string _b, string _c) internal returns (string) {\n        return strConcat(_a, _b, _c, \"\", \"\");\n    }\n\n    function strConcat(string _a, string _b) internal returns (string) {\n        return strConcat(_a, _b, \"\", \"\", \"\");\n    }\n\n    // parseInt\n    function parseInt(string _a) internal returns (uint) {\n        return parseInt(_a, 0);\n    }\n\n    // parseInt(parseFloat*10^_b)\n    function parseInt(string _a, uint _b) internal returns (uint) {\n        bytes memory bresult = bytes(_a);\n        uint mint = 0;\n        bool decimals = false;\n        for (uint i=0; i<bresult.length; i++){\n            if ((bresult[i] >= 48)&&(bresult[i] <= 57)){\n                if (decimals){\n                   if (_b == 0) break;\n                    else _b--;\n                }\n                mint *= 10;\n                mint += uint(bresult[i]) - 48;\n            } else if (bresult[i] == 46) decimals = true;\n        }\n        if (_b > 0) mint *= 10**_b;\n        return mint;\n    }\n\n    function uint2str(uint i) internal returns (string){\n        if (i == 0) return \"0\";\n        uint j = i;\n        uint len;\n        while (j != 0){\n            len++;\n            j /= 10;\n        }\n        bytes memory bstr = new bytes(len);\n        uint k = len - 1;\n        while (i != 0){\n            bstr[k--] = byte(48 + i % 10);\n            i /= 10;\n        }\n        return string(bstr);\n    }\n\n\n\n}\n// </ORACLIZE_API>\n//   for (uint i=0; i< 10; i++) {\n//         uint goalsHT = parseInt(goalsHT_string)\n//         if(output[i].value === 100000 && output[i].addresses[0] === ){\n//         console.log('found')\n//         }\n//         console.log('nope')\n// })\n\n//they are using uints to store the necessary info strConcat\n//https://github.com/oraclize/ethereum-examples/blob/master/solidity/truffle-examples/bitcoin-balance/contracts/BitcoinAddressExample.sol\n//\n\n\ncontract bitcoinEthereumBridge is usingOraclize {\n\n  uint public bitcoinWithdrawAmount;\n  string public bitcoinWithdrawAddress;\n  bytes32 public oraclizeID;\n  string public apiCallResult;\n  address public recipientAddress;\n  address public owner;\n\n  //lets have an owner here so it can transferred back\n\n\n  // Deposited by sender of the bitcoin assigning the contract values\n  // depositing eth in contract with outputAddress and the needed amount in Satoshi for which eth can withdrawed\n  function deposit(string sentBitcoinAddress, uint sentBitcoinAmount) payable public {\n      // require(msg.value == (uint256) amount);\n      bitcoinWithdrawAddress = sentBitcoinAddress;\n      bitcoinWithdrawAmount = sentBitcoinAmount;\n  }\n\n  //Bitcoin sender calls this function with his tx_hash and ricipientAddress which will invoke call back function\n  // make sure you take a new bitcoin address that does not have any past transactions so far\n  function getTransaction(string txHash) payable {\n    //should require tx.hash.length == 64 or bytes(str).length ==\n    //making sure that the msg.sender is the recipient of eth\n    recipientAddress = msg.sender;\n    // string memory query = strConcat(\"json(https://api.blockcypher.com/v1/btc/main/txs/\", txHash, \").confidence\");\n    string memory query = strConcat(\"https://blockchain.info/q/txresult/\", txHash, \"/\", bitcoinWithdrawAddress);\n    oraclizeID = oraclize_query(\"URL\", query, 500000);\n  }\n  //Oraclize call back function invoking payout process\n  function __callback(bytes32 _oraclizeID, string _result) {\n    if(msg.sender != oraclize_cbAddress()) throw;\n    apiCallResult = _result;\n    checkCallback();\n  }\n  //if API Result is correct payout the Bitcoin sender\n  function checkCallback(){\n    //require confidence has to be greater than 0.9 to be a secure tx\n    require(stringToUint(apiCallResult) >= bitcoinWithdrawAmount);\n    withdrawAll();\n  }\n  //Finally withdrawing the right amount\n  function withdrawAll() internal {\n    recipientAddress.transfer(address(this).balance);\n  }\n\n\n  /* HELPER FUNCTIONS */\n  function stringToUint(string s) constant returns (uint result) {\n        bytes memory b = bytes(s);\n        uint i;\n        result = 0;\n        for (i = 0; i < b.length; i++) {\n            uint c = uint(b[i]);\n            if (c >= 48 && c <= 57) {\n                result = result * 10 + (c - 48);\n            }\n        }\n    }\n\n  function getBitcoinAddress() returns (string){\n    return bitcoinWithdrawAddress;\n  }\n\n  function getBitcoinAmount() returns (uint){\n    return bitcoinWithdrawAmount;\n  }\n}\n",
  "sourcePath": "/home/markus/Documents/Programming/smartEscrow/ethereumBridge/contracts/bitcoinEthereumBridge.sol",
  "compiler": {
    "name": "solc",
    "version": "0.4.25+commit.59dbf8f1.Emscripten.clang"
  },
  "schemaVersion": "3.0.1",
  "updatedAt": "2019-01-07T17:34:45.050Z",
  "devdoc": {
    "methods": {}
  },
  "userdoc": {
    "methods": {}
  }
}