{
  "contractName": "EthereumBridge",
  "abi": [
    {
      "inputs": [],
      "payable": false,
      "stateMutability": "nonpayable",
      "type": "constructor",
      "signature": "constructor"
    },
    {
      "constant": false,
      "inputs": [
        {
          "name": "x",
          "type": "uint256"
        }
      ],
      "name": "ping",
      "outputs": [
        {
          "name": "",
          "type": "string"
        }
      ],
      "payable": false,
      "stateMutability": "nonpayable",
      "type": "function",
      "signature": "0x773acdef"
    },
    {
      "constant": false,
      "inputs": [
        {
          "name": "_bitcoinAddress",
          "type": "string"
        },
        {
          "name": "_bitcoinAmountinSatoshi",
          "type": "string"
        }
      ],
      "name": "depositEther",
      "outputs": [],
      "payable": true,
      "stateMutability": "payable",
      "type": "function",
      "signature": "0xcd5370a1"
    },
    {
      "constant": false,
      "inputs": [
        {
          "name": "_txHash",
          "type": "string"
        },
        {
          "name": "_bitcoinAddress",
          "type": "string"
        }
      ],
      "name": "getTransaction",
      "outputs": [],
      "payable": true,
      "stateMutability": "payable",
      "type": "function",
      "signature": "0x57b27701"
    },
    {
      "constant": false,
      "inputs": [
        {
          "name": "_oraclizeID",
          "type": "bytes32"
        },
        {
          "name": "_result",
          "type": "string"
        }
      ],
      "name": "__callback",
      "outputs": [],
      "payable": false,
      "stateMutability": "nonpayable",
      "type": "function",
      "signature": "0x27dc297e"
    },
    {
      "constant": false,
      "inputs": [
        {
          "name": "myid",
          "type": "bytes32"
        },
        {
          "name": "result",
          "type": "string"
        },
        {
          "name": "proof",
          "type": "bytes"
        }
      ],
      "name": "__callback",
      "outputs": [],
      "payable": false,
      "stateMutability": "nonpayable",
      "type": "function",
      "signature": "0x38bbfa50"
    },
    {
      "constant": false,
      "inputs": [
        {
          "name": "source",
          "type": "string"
        }
      ],
      "name": "stringToBytes32",
      "outputs": [
        {
          "name": "result",
          "type": "bytes32"
        }
      ],
      "payable": false,
      "stateMutability": "nonpayable",
      "type": "function",
      "signature": "0xcfb51928"
    },
    {
      "constant": true,
      "inputs": [
        {
          "name": "s",
          "type": "string"
        }
      ],
      "name": "stringToUint",
      "outputs": [
        {
          "name": "result",
          "type": "uint256"
        }
      ],
      "payable": false,
      "stateMutability": "view",
      "type": "function",
      "signature": "0x1bd95155"
    }
  ],
  "bytecode": "0x608060405234801561001057600080fd5b50736f485c8bf6fc43ea212e93bbf8ce046c7f1cb4756000806101000a81548173ffffffffffffffffffffffffffffffffffffffff021916908373ffffffffffffffffffffffffffffffffffffffff160217905550611ee0806100746000396000f300608060405260043610610083576000357c0100000000000000000000000000000000000000000000000000000000900463ffffffff1680631bd951551461008857806327dc297e1461010557806338bbfa501461017c57806357b2770114610239578063773acdef146102db578063cd5370a114610381578063cfb5192814610423575b600080fd5b34801561009457600080fd5b506100ef600480360381019080803590602001908201803590602001908080601f01602080910402602001604051908101604052809392919081815260200183838082843782019150505050505091929192905050506104a8565b6040518082815260200191505060405180910390f35b34801561011157600080fd5b5061017a6004803603810190808035600019169060200190929190803590602001908201803590602001908080601f016020809104026020016040519081016040528093929190818152602001838380828437820191505050505050919291929050505061057a565b005b34801561018857600080fd5b506102376004803603810190808035600019169060200190929190803590602001908201803590602001908080601f0160208091040260200160405190810160405280939291908181526020018383808284378201915050505050509192919290803590602001908201803590602001908080601f0160208091040260200160405190810160405280939291908181526020018383808284378201915050505050509192919290505050610911565b005b6102d9600480360381019080803590602001908201803590602001908080601f0160208091040260200160405190810160405280939291908181526020018383808284378201915050505050509192919290803590602001908201803590602001908080601f0160208091040260200160405190810160405280939291908181526020018383808284378201915050505050509192919290505050610916565b005b3480156102e757600080fd5b5061030660048036038101908080359060200190929190505050610bdf565b6040518080602001828103825283818151815260200191508051906020019080838360005b8381101561034657808201518184015260208101905061032b565b50505050905090810190601f1680156103735780820380516001836020036101000a031916815260200191505b509250505060405180910390f35b610421600480360381019080803590602001908201803590602001908080601f0160208091040260200160405190810160405280939291908181526020018383808284378201915050505050509192919290803590602001908201803590602001908080601f0160208091040260200160405190810160405280939291908181526020018383808284378201915050505050509192919290505050610c1e565b005b34801561042f57600080fd5b5061048a600480360381019080803590602001908201803590602001908080601f0160208091040260200160405190810160405280939291908181526020018383808284378201915050505050509192919290505050610e6c565b60405180826000191660001916815260200191505060405180910390f35b6000606060008084925060009350600091505b82518210156105725782828151811015156104d257fe5b9060200101517f010000000000000000000000000000000000000000000000000000000000000090047f0100000000000000000000000000000000000000000000000000000000000000027f01000000000000000000000000000000000000000000000000000000000000009004905060308110158015610554575060398111155b156105655760308103600a85020193505b81806001019250506104bb565b505050919050565b60606000806003600086600019166000191681526020019081526020016000208054600181600116156101000203166002900480601f01602080910402602001604051908101604052809291908181526020018280546001816001161561010002031660029004801561062e5780601f106106035761010080835404028352916020019161062e565b820191906000526020600020905b81548152906001019060200180831161061157829003601f168201915b5050505050925073c68598cd56faf5896b7d7bab0de5545d1e9bd90e915061075b6002846040518082805190602001908083835b6020831015156106875780518252602082019150602081019050602083039250610662565b6001836020036101000a03801982511681845116808217855250505050505090500191505090815260200160405180910390206001018054600181600116156101000203166002900480601f0160208091040260200160405190810160405280929190818152602001828054600181600116156101000203166002900480156107515780601f1061072657610100808354040283529160200191610751565b820191906000526020600020905b81548152906001019060200180831161073457829003601f168201915b50505050506104a8565b9050610765610e97565b73ffffffffffffffffffffffffffffffffffffffff163373ffffffffffffffffffffffffffffffffffffffff1614151561079e57600080fd5b6108ad6002846040518082805190602001908083835b6020831015156107d957805182526020820191506020810190506020830392506107b4565b6001836020036101000a03801982511681845116808217855250505050505090500191505090815260200160405180910390206002018054600181600116156101000203166002900480601f0160208091040260200160405190810160405280929190818152602001828054600181600116156101000203166002900480156108a35780601f10610878576101008083540402835291602001916108a3565b820191906000526020600020905b81548152906001019060200180831161088657829003601f168201915b50505050506104a8565b6108b6856104a8565b101515156108c357600080fd5b8173ffffffffffffffffffffffffffffffffffffffff166108fc829081150290604051600060405180830381858888f19350505050158015610909573d6000803e3d6000fd5b505050505050565b505050565b606060006002836040518082805190602001908083835b602083101515610952578051825260208201915060208101905060208303925061092d565b6001836020036101000a038019825116818451168082178552505050505050905001915050908152602001604051809103902060000160009054906101000a900460ff1615156109a157600080fd5b610a3e606060405190810160405280602381526020017f68747470733a2f2f626c6f636b636861696e2e696e666f2f712f74787265737581526020017f6c742f0000000000000000000000000000000000000000000000000000000000815250856040805190810160405280600181526020017f2f00000000000000000000000000000000000000000000000000000000000000815250866110aa565b9150610a836040805190810160405280600381526020017f55524c0000000000000000000000000000000000000000000000000000000000815250836207a1206110d3565b9050336002846040518082805190602001908083835b602083101515610abe5780518252602082019150602081019050602083039250610a99565b6001836020036101000a038019825116818451168082178552505050505050905001915050908152602001604051809103902060030160006101000a81548173ffffffffffffffffffffffffffffffffffffffff021916908373ffffffffffffffffffffffffffffffffffffffff160217905550806002846040518082805190602001908083835b602083101515610b6b5780518252602082019150602081019050602083039250610b46565b6001836020036101000a03801982511681845116808217855250505050505090500191505090815260200160405180910390206004018160001916905550826003600083600019166000191681526020019081526020016000209080519060200190610bd8929190611d44565b5050505050565b60606040805190810160405280600481526020017f706f6e67000000000000000000000000000000000000000000000000000000008152509050919050565b610c26611dc4565b6002836040518082805190602001908083835b602083101515610c5e5780518252602082019150602081019050602083039250610c39565b6001836020036101000a038019825116818451168082178552505050505050905001915050908152602001604051809103902060000160009054906101000a900460ff16151515610cae57600080fd5b60a060405190810160405280600115158152602001610ccc34611538565b8152602001838152602001600069ffffffffffffffffffff1673ffffffffffffffffffffffffffffffffffffffff168152602001610d3e6040805190810160405280600181526020017f3000000000000000000000000000000000000000000000000000000000000000815250610e6c565b600019168152509050806002846040518082805190602001908083835b602083101515610d805780518252602082019150602081019050602083039250610d5b565b6001836020036101000a038019825116818451168082178552505050505050905001915050908152602001604051809103902060008201518160000160006101000a81548160ff0219169083151502179055506020820151816001019080519060200190610def929190611e0f565b506040820151816002019080519060200190610e0c929190611e0f565b5060608201518160030160006101000a81548173ffffffffffffffffffffffffffffffffffffffff021916908373ffffffffffffffffffffffffffffffffffffffff16021790555060808201518160040190600019169055905050505050565b60006060829050600081511415610e895760006001029150610e91565b602083015191505b50919050565b6000806000809054906101000a900473ffffffffffffffffffffffffffffffffffffffff1673ffffffffffffffffffffffffffffffffffffffff161415610ee457610ee2600061168f565b505b6000809054906101000a900473ffffffffffffffffffffffffffffffffffffffff1673ffffffffffffffffffffffffffffffffffffffff166338cc48316040518163ffffffff167c0100000000000000000000000000000000000000000000000000000000028152600401602060405180830381600087803b158015610f6957600080fd5b505af1158015610f7d573d6000803e3d6000fd5b505050506040513d6020811015610f9357600080fd5b8101908080519060200190929190505050600160006101000a81548173ffffffffffffffffffffffffffffffffffffffff021916908373ffffffffffffffffffffffffffffffffffffffff160217905550600160009054906101000a900473ffffffffffffffffffffffffffffffffffffffff1673ffffffffffffffffffffffffffffffffffffffff1663c281d19e6040518163ffffffff167c0100000000000000000000000000000000000000000000000000000000028152600401602060405180830381600087803b15801561106a57600080fd5b505af115801561107e573d6000803e3d6000fd5b505050506040513d602081101561109457600080fd5b8101908080519060200190929190505050905090565b60606110c9858585856020604051908101604052806000815250611924565b9050949350505050565b60008060008060009054906101000a900473ffffffffffffffffffffffffffffffffffffffff1673ffffffffffffffffffffffffffffffffffffffff16141561112257611120600061168f565b505b6000809054906101000a900473ffffffffffffffffffffffffffffffffffffffff1673ffffffffffffffffffffffffffffffffffffffff166338cc48316040518163ffffffff167c0100000000000000000000000000000000000000000000000000000000028152600401602060405180830381600087803b1580156111a757600080fd5b505af11580156111bb573d6000803e3d6000fd5b505050506040513d60208110156111d157600080fd5b8101908080519060200190929190505050600160006101000a81548173ffffffffffffffffffffffffffffffffffffffff021916908373ffffffffffffffffffffffffffffffffffffffff160217905550600160009054906101000a900473ffffffffffffffffffffffffffffffffffffffff1673ffffffffffffffffffffffffffffffffffffffff16632ef3accc86856040518363ffffffff167c01000000000000000000000000000000000000000000000000000000000281526004018080602001838152602001828103825284818151815260200191508051906020019080838360005b838110156112d35780820151818401526020810190506112b8565b50505050905090810190601f1680156113005780820380516001836020036101000a031916815260200191505b509350505050602060405180830381600087803b15801561132057600080fd5b505af1158015611334573d6000803e3d6000fd5b505050506040513d602081101561134a57600080fd5b81019080805190602001909291905050509050823a02670de0b6b3a76400000181111561137d5760006001029150611530565b600160009054906101000a900473ffffffffffffffffffffffffffffffffffffffff1673ffffffffffffffffffffffffffffffffffffffff1663c51be90f8260008888886040518663ffffffff167c0100000000000000000000000000000000000000000000000000000000028152600401808581526020018060200180602001848152602001838103835286818151815260200191508051906020019080838360005b8381101561143c578082015181840152602081019050611421565b50505050905090810190601f1680156114695780820380516001836020036101000a031916815260200191505b50838103825285818151815260200191508051906020019080838360005b838110156114a2578082015181840152602081019050611487565b50505050905090810190601f1680156114cf5780820380516001836020036101000a031916815260200191505b5096505050505050506020604051808303818588803b1580156114f157600080fd5b505af1158015611505573d6000803e3d6000fd5b50505050506040513d602081101561151c57600080fd5b810190808051906020019092919050505091505b509392505050565b60606000806060600080861415611586576040805190810160405280600181526020017f30000000000000000000000000000000000000000000000000000000000000008152509450611686565b8593505b6000841415156115b0578280600101935050600a848115156115a857fe5b04935061158a565b826040519080825280601f01601f1916602001820160405280156115e35781602001602082028038833980820191505090505b5091506001830390505b60008614151561168257600a8681151561160357fe5b066030017f01000000000000000000000000000000000000000000000000000000000000000282828060019003935081518110151561163e57fe5b9060200101907effffffffffffffffffffffffffffffffffffffffffffffffffffffffffffff1916908160001a905350600a8681151561167a57fe5b0495506115ed565b8194505b50505050919050565b6000806116af731d3b2638a7cc9f2cb3d298a3da7a90b67e5506ed611d39565b111561171257731d3b2638a7cc9f2cb3d298a3da7a90b67e5506ed6000806101000a81548173ffffffffffffffffffffffffffffffffffffffff021916908373ffffffffffffffffffffffffffffffffffffffff1602179055506001905061191f565b600061173173c03a2615d5efaf5f49f60b7bb6583eaec212fdf1611d39565b11156117945773c03a2615d5efaf5f49f60b7bb6583eaec212fdf16000806101000a81548173ffffffffffffffffffffffffffffffffffffffff021916908373ffffffffffffffffffffffffffffffffffffffff1602179055506001905061191f565b60006117b37320e12a1f859b3feae5fb2a0a32c18f5a65555bbf611d39565b1115611816577320e12a1f859b3feae5fb2a0a32c18f5a65555bbf6000806101000a81548173ffffffffffffffffffffffffffffffffffffffff021916908373ffffffffffffffffffffffffffffffffffffffff1602179055506001905061191f565b60006118357393bbbe5ce77034e3095f0479919962a903f898ad611d39565b1115611898577393bbbe5ce77034e3095f0479919962a903f898ad6000806101000a81548173ffffffffffffffffffffffffffffffffffffffff021916908373ffffffffffffffffffffffffffffffffffffffff1602179055506001905061191f565b60006118b77351efaf4c8b3c9afbd5ab9f4bbc82784ab6ef8faa611d39565b111561191a577351efaf4c8b3c9afbd5ab9f4bbc82784ab6ef8faa6000806101000a81548173ffffffffffffffffffffffffffffffffffffffff021916908373ffffffffffffffffffffffffffffffffffffffff1602179055506001905061191f565b600090505b919050565b6060806060806060806060806000808e98508d97508c96508b95508a94508451865188518a518c51010101016040519080825280601f01601f1916602001820160405280156119825781602001602082028038833980820191505090505b50935083925060009150600090505b8851811015611a445788818151811015156119a857fe5b9060200101517f010000000000000000000000000000000000000000000000000000000000000090047f0100000000000000000000000000000000000000000000000000000000000000028383806001019450815181101515611a0757fe5b9060200101907effffffffffffffffffffffffffffffffffffffffffffffffffffffffffffff1916908160001a9053508080600101915050611991565b600090505b8751811015611afc578781815181101515611a6057fe5b9060200101517f010000000000000000000000000000000000000000000000000000000000000090047f0100000000000000000000000000000000000000000000000000000000000000028383806001019450815181101515611abf57fe5b9060200101907effffffffffffffffffffffffffffffffffffffffffffffffffffffffffffff1916908160001a9053508080600101915050611a49565b600090505b8651811015611bb4578681815181101515611b1857fe5b9060200101517f010000000000000000000000000000000000000000000000000000000000000090047f0100000000000000000000000000000000000000000000000000000000000000028383806001019450815181101515611b7757fe5b9060200101907effffffffffffffffffffffffffffffffffffffffffffffffffffffffffffff1916908160001a9053508080600101915050611b01565b600090505b8551811015611c6c578581815181101515611bd057fe5b9060200101517f010000000000000000000000000000000000000000000000000000000000000090047f0100000000000000000000000000000000000000000000000000000000000000028383806001019450815181101515611c2f57fe5b9060200101907effffffffffffffffffffffffffffffffffffffffffffffffffffffffffffff1916908160001a9053508080600101915050611bb9565b600090505b8451811015611d24578481815181101515611c8857fe5b9060200101517f010000000000000000000000000000000000000000000000000000000000000090047f0100000000000000000000000000000000000000000000000000000000000000028383806001019450815181101515611ce757fe5b9060200101907effffffffffffffffffffffffffffffffffffffffffffffffffffffffffffff1916908160001a9053508080600101915050611c71565b82995050505050505050505095945050505050565b6000813b9050919050565b828054600181600116156101000203166002900490600052602060002090601f016020900481019282601f10611d8557805160ff1916838001178555611db3565b82800160010185558215611db3579182015b82811115611db2578251825591602001919060010190611d97565b5b509050611dc09190611e8f565b5090565b60a0604051908101604052806000151581526020016060815260200160608152602001600073ffffffffffffffffffffffffffffffffffffffff168152602001600080191681525090565b828054600181600116156101000203166002900490600052602060002090601f016020900481019282601f10611e5057805160ff1916838001178555611e7e565b82800160010185558215611e7e579182015b82811115611e7d578251825591602001919060010190611e62565b5b509050611e8b9190611e8f565b5090565b611eb191905b80821115611ead576000816000905550600101611e95565b5090565b905600a165627a7a72305820785b4bbb75e1cc07d2512df8261afafb357c4c855951a01798ffc49f0c2504f60029",
  "source": "pragma solidity ^0.4.0;//please import oraclizeAPI_pre0.4.sol when solidity < 0.4.0\n\ncontract OraclizeI {\n    address public cbAddress;\n    function query(uint _timestamp, string _datasource, string _arg) payable returns (bytes32 _id);\n    function query_withGasLimit(uint _timestamp, string _datasource, string _arg, uint _gaslimit) payable returns (bytes32 _id);\n    function query2(uint _timestamp, string _datasource, string _arg1, string _arg2) payable returns (bytes32 _id);\n    function query2_withGasLimit(uint _timestamp, string _datasource, string _arg1, string _arg2, uint _gaslimit) payable returns (bytes32 _id);\n    function getPrice(string _datasource) returns (uint _dsprice);\n    function getPrice(string _datasource, uint gaslimit) returns (uint _dsprice);\n    function useCoupon(string _coupon);\n    function setProofType(byte _proofType);\n    function setConfig(bytes32 _config);\n    function setCustomGasPrice(uint _gasPrice);\n}\ncontract OraclizeAddrResolverI {\n    function getAddress() returns (address _addr);\n}\ncontract usingOraclize {\n    uint constant day = 60*60*24;\n    uint constant week = 60*60*24*7;\n    uint constant month = 60*60*24*30;\n    byte constant proofType_NONE = 0x00;\n    byte constant proofType_TLSNotary = 0x10;\n    byte constant proofStorage_IPFS = 0x01;\n    uint8 constant networkID_auto = 0;\n    uint8 constant networkID_mainnet = 1;\n    uint8 constant networkID_testnet = 2;\n    uint8 constant networkID_morden = 2;\n    uint8 constant networkID_consensys = 161;\n\n    OraclizeAddrResolverI OAR;\n\n    OraclizeI oraclize;\n    modifier oraclizeAPI {\n        if(address(OAR)==0) oraclize_setNetwork(networkID_auto);\n        oraclize = OraclizeI(OAR.getAddress());\n        _;\n    }\n    modifier coupon(string code){\n        oraclize = OraclizeI(OAR.getAddress());\n        oraclize.useCoupon(code);\n        _;\n    }\n\n    function oraclize_setNetwork(uint8 networkID) internal returns(bool){\n        if (getCodeSize(0x1d3b2638a7cc9f2cb3d298a3da7a90b67e5506ed)>0){ //mainnet\n            OAR = OraclizeAddrResolverI(0x1d3b2638a7cc9f2cb3d298a3da7a90b67e5506ed);\n            return true;\n        }\n        if (getCodeSize(0xc03a2615d5efaf5f49f60b7bb6583eaec212fdf1)>0){ //ropsten testnet\n            OAR = OraclizeAddrResolverI(0xc03a2615d5efaf5f49f60b7bb6583eaec212fdf1);\n            return true;\n        }\n        if (getCodeSize(0x20e12a1f859b3feae5fb2a0a32c18f5a65555bbf)>0){ //ether.camp ide\n            OAR = OraclizeAddrResolverI(0x20e12a1f859b3feae5fb2a0a32c18f5a65555bbf);\n            return true;\n        }\n        if (getCodeSize(0x93bbbe5ce77034e3095f0479919962a903f898ad)>0){ //norsborg testnet\n            OAR = OraclizeAddrResolverI(0x93bbbe5ce77034e3095f0479919962a903f898ad);\n            return true;\n        }\n        if (getCodeSize(0x51efaf4c8b3c9afbd5ab9f4bbc82784ab6ef8faa)>0){ //browser-solidity\n            OAR = OraclizeAddrResolverI(0x51efaf4c8b3c9afbd5ab9f4bbc82784ab6ef8faa);\n            return true;\n        }\n        return false;\n    }\n\n    function __callback(bytes32 myid, string result) {\n        __callback(myid, result, new bytes(0));\n    }\n    function __callback(bytes32 myid, string result, bytes proof) {\n    }\n\n    function oraclize_getPrice(string datasource) oraclizeAPI internal returns (uint){\n        return oraclize.getPrice(datasource);\n    }\n    function oraclize_getPrice(string datasource, uint gaslimit) oraclizeAPI internal returns (uint){\n        return oraclize.getPrice(datasource, gaslimit);\n    }\n\n    function oraclize_query(string datasource, string arg) oraclizeAPI internal returns (bytes32 id){\n        uint price = oraclize.getPrice(datasource);\n        if (price > 1 ether + tx.gasprice*200000) return 0; // unexpectedly high price\n        return oraclize.query.value(price)(0, datasource, arg);\n    }\n    function oraclize_query(uint timestamp, string datasource, string arg) oraclizeAPI internal returns (bytes32 id){\n        uint price = oraclize.getPrice(datasource);\n        if (price > 1 ether + tx.gasprice*200000) return 0; // unexpectedly high price\n        return oraclize.query.value(price)(timestamp, datasource, arg);\n    }\n    function oraclize_query(uint timestamp, string datasource, string arg, uint gaslimit) oraclizeAPI internal returns (bytes32 id){\n        uint price = oraclize.getPrice(datasource, gaslimit);\n        if (price > 1 ether + tx.gasprice*gaslimit) return 0; // unexpectedly high price\n        return oraclize.query_withGasLimit.value(price)(timestamp, datasource, arg, gaslimit);\n    }\n    function oraclize_query(string datasource, string arg, uint gaslimit) oraclizeAPI internal returns (bytes32 id){\n        uint price = oraclize.getPrice(datasource, gaslimit);\n        if (price > 1 ether + tx.gasprice*gaslimit) return 0; // unexpectedly high price\n        return oraclize.query_withGasLimit.value(price)(0, datasource, arg, gaslimit);\n    }\n    function oraclize_query(string datasource, string arg1, string arg2) oraclizeAPI internal returns (bytes32 id){\n        uint price = oraclize.getPrice(datasource);\n        if (price > 1 ether + tx.gasprice*200000) return 0; // unexpectedly high price\n        return oraclize.query2.value(price)(0, datasource, arg1, arg2);\n    }\n    function oraclize_query(uint timestamp, string datasource, string arg1, string arg2) oraclizeAPI internal returns (bytes32 id){\n        uint price = oraclize.getPrice(datasource);\n        if (price > 1 ether + tx.gasprice*200000) return 0; // unexpectedly high price\n        return oraclize.query2.value(price)(timestamp, datasource, arg1, arg2);\n    }\n    function oraclize_query(uint timestamp, string datasource, string arg1, string arg2, uint gaslimit) oraclizeAPI internal returns (bytes32 id){\n        uint price = oraclize.getPrice(datasource, gaslimit);\n        if (price > 1 ether + tx.gasprice*gaslimit) return 0; // unexpectedly high price\n        return oraclize.query2_withGasLimit.value(price)(timestamp, datasource, arg1, arg2, gaslimit);\n    }\n    function oraclize_query(string datasource, string arg1, string arg2, uint gaslimit) oraclizeAPI internal returns (bytes32 id){\n        uint price = oraclize.getPrice(datasource, gaslimit);\n        if (price > 1 ether + tx.gasprice*gaslimit) return 0; // unexpectedly high price\n        return oraclize.query2_withGasLimit.value(price)(0, datasource, arg1, arg2, gaslimit);\n    }\n    function oraclize_cbAddress() oraclizeAPI internal returns (address){\n        return oraclize.cbAddress();\n    }\n    function oraclize_setProof(byte proofP) oraclizeAPI internal {\n        return oraclize.setProofType(proofP);\n    }\n    function oraclize_setCustomGasPrice(uint gasPrice) oraclizeAPI internal {\n        return oraclize.setCustomGasPrice(gasPrice);\n    }\n    function oraclize_setConfig(bytes32 config) oraclizeAPI internal {\n        return oraclize.setConfig(config);\n    }\n\n    function getCodeSize(address _addr) constant internal returns(uint _size) {\n        assembly {\n            _size := extcodesize(_addr)\n        }\n    }\n\n\n    function parseAddr(string _a) internal returns (address){\n        bytes memory tmp = bytes(_a);\n        uint160 iaddr = 0;\n        uint160 b1;\n        uint160 b2;\n        for (uint i=2; i<2+2*20; i+=2){\n            iaddr *= 256;\n            b1 = uint160(tmp[i]);\n            b2 = uint160(tmp[i+1]);\n            if ((b1 >= 97)&&(b1 <= 102)) b1 -= 87;\n            else if ((b1 >= 48)&&(b1 <= 57)) b1 -= 48;\n            if ((b2 >= 97)&&(b2 <= 102)) b2 -= 87;\n            else if ((b2 >= 48)&&(b2 <= 57)) b2 -= 48;\n            iaddr += (b1*16+b2);\n        }\n        return address(iaddr);\n    }\n\n\n    function strCompare(string _a, string _b) internal returns (int) {\n        bytes memory a = bytes(_a);\n        bytes memory b = bytes(_b);\n        uint minLength = a.length;\n        if (b.length < minLength) minLength = b.length;\n        for (uint i = 0; i < minLength; i ++)\n            if (a[i] < b[i])\n                return -1;\n            else if (a[i] > b[i])\n                return 1;\n        if (a.length < b.length)\n            return -1;\n        else if (a.length > b.length)\n            return 1;\n        else\n            return 0;\n   }\n\n    function indexOf(string _haystack, string _needle) internal returns (int)\n    {\n        bytes memory h = bytes(_haystack);\n        bytes memory n = bytes(_needle);\n        if(h.length < 1 || n.length < 1 || (n.length > h.length))\n            return -1;\n        else if(h.length > (2**128 -1))\n            return -1;\n        else\n        {\n            uint subindex = 0;\n            for (uint i = 0; i < h.length; i ++)\n            {\n                if (h[i] == n[0])\n                {\n                    subindex = 1;\n                    while(subindex < n.length && (i + subindex) < h.length && h[i + subindex] == n[subindex])\n                    {\n                        subindex++;\n                    }\n                    if(subindex == n.length)\n                        return int(i);\n                }\n            }\n            return -1;\n        }\n    }\n\n    function strConcat(string _a, string _b, string _c, string _d, string _e) internal returns (string){\n        bytes memory _ba = bytes(_a);\n        bytes memory _bb = bytes(_b);\n        bytes memory _bc = bytes(_c);\n        bytes memory _bd = bytes(_d);\n        bytes memory _be = bytes(_e);\n        string memory abcde = new string(_ba.length + _bb.length + _bc.length + _bd.length + _be.length);\n        bytes memory babcde = bytes(abcde);\n        uint k = 0;\n        for (uint i = 0; i < _ba.length; i++) babcde[k++] = _ba[i];\n        for (i = 0; i < _bb.length; i++) babcde[k++] = _bb[i];\n        for (i = 0; i < _bc.length; i++) babcde[k++] = _bc[i];\n        for (i = 0; i < _bd.length; i++) babcde[k++] = _bd[i];\n        for (i = 0; i < _be.length; i++) babcde[k++] = _be[i];\n        return string(babcde);\n    }\n\n    function strConcat(string _a, string _b, string _c, string _d) internal returns (string) {\n        return strConcat(_a, _b, _c, _d, \"\");\n    }\n\n    function strConcat(string _a, string _b, string _c) internal returns (string) {\n        return strConcat(_a, _b, _c, \"\", \"\");\n    }\n\n    function strConcat(string _a, string _b) internal returns (string) {\n        return strConcat(_a, _b, \"\", \"\", \"\");\n    }\n\n    // parseInt\n    function parseInt(string _a) internal returns (uint) {\n        return parseInt(_a, 0);\n    }\n\n    // parseInt(parseFloat*10^_b)\n    function parseInt(string _a, uint _b) internal returns (uint) {\n        bytes memory bresult = bytes(_a);\n        uint mint = 0;\n        bool decimals = false;\n        for (uint i=0; i<bresult.length; i++){\n            if ((bresult[i] >= 48)&&(bresult[i] <= 57)){\n                if (decimals){\n                   if (_b == 0) break;\n                    else _b--;\n                }\n                mint *= 10;\n                mint += uint(bresult[i]) - 48;\n            } else if (bresult[i] == 46) decimals = true;\n        }\n        if (_b > 0) mint *= 10**_b;\n        return mint;\n    }\n\n    function uint2str(uint i) internal returns (string){\n        if (i == 0) return \"0\";\n        uint j = i;\n        uint len;\n        while (j != 0){\n            len++;\n            j /= 10;\n        }\n        bytes memory bstr = new bytes(len);\n        uint k = len - 1;\n        while (i != 0){\n            bstr[k--] = byte(48 + i % 10);\n            i /= 10;\n        }\n        return string(bstr);\n    }\n\n\n\n}\n// </ORACLIZE_API>\n//   for (uint i=0; i< 10; i++) {\n//         uint goalsHT = parseInt(goalsHT_string)\n//         if(output[i].value === 100000 && output[i].addresses[0] === ){\n//         console.log('found')\n//         }\n//         console.log('nope')\n// })\n\n//they are using uints to store the necessary info strConcat\n//https://github.com/oraclize/ethereum-examples/blob/master/solidity/truffle-examples/bitcoin-balance/contracts/BitcoinAddressExample.sol\n//\n\n\ncontract EthereumBridge is usingOraclize {\n\n  // uint public bitcoinWithdrawAmount;\n  // string public bitcoinWithdrawAddress;\n  struct Bond {\n      bool exsists;\n      string ethDepositInWei;\n      string bitcoinWithdrawAmount;\n      address potentialPayoutAddress;\n      bytes32 oraclizeID;\n    }\n  //checking payout with the string bitcoinAddress as key (solidity uses a sha3 hashmap)\n  mapping(string => Bond) deposit;\n  //checking oraclize\n  mapping(bytes32 => string) oraclizeLookup;\n  function ping(uint x) returns (string){\n    return \"pong\";\n  }\n  // Constructor\n  function EthereumBridge() public {\n        // owner = msg.sender;\n        // emit LogUpdate(owner, address(this).balance);\n        // Replace the next line with your version:\n        OAR = OraclizeAddrResolverI(0x6f485C8BF6fc43eA212E93BBF8ce046C7f1cb475);\n        // oraclize_setProof(proofType_TLSNotary | proofStorage_IPFS);\n        // update();\n      }\n\n  // Deposited by sender of the bitcoin assigning the contract values\n  // depositing eth in contract with outputAddress and the needed amount in Satoshi for which eth can withdrawed\n  function depositEther(string _bitcoinAddress, string _bitcoinAmountinSatoshi) payable public {\n      // checking for duplicate key in mapping\n      require(!deposit[_bitcoinAddress].exsists);\n      Bond memory paymentStruct = Bond({\n                                  exsists:true,\n                                  ethDepositInWei:uint2str(msg.value),\n                                  bitcoinWithdrawAmount:_bitcoinAmountinSatoshi,\n                                  potentialPayoutAddress: None,\n                                  oraclizeID: stringToBytes32(\"0\")});\n      deposit[_bitcoinAddress] = paymentStruct;\n  }\n\n  //Bitcoin sender calls this function with his tx_hash and ricipientAddress which will invoke call back function\n  // make sure you take a new bitcoin address that does not have any past transactions so far\n  //payable because oraclize call\n  function getTransaction(string _txHash, string _bitcoinAddress) payable {\n    //should require tx.hash.length == 64 or bytes(str).length ==\n    //require that it has been created or not payed out yet\n    require(deposit[_bitcoinAddress].exsists);\n    //calling Oraclize API and assiging the right ID\n    // if (oraclize_getPrice(\"URL\") > address(this).balance) {\n    //   // emit LogInfo(\"Oraclize query was NOT sent, please add some ETH to cover for the query fee\");\n    // } else {\n      // emit LogInfo(\"Oraclize query was sent, standing by for the answer..\");\n      string memory query = strConcat(\"https://blockchain.info/q/txresult/\", _txHash, \"/\", _bitcoinAddress);\n      bytes32 oraclizeID = oraclize_query(\"URL\", query, 500000);\n      // assigning the message sender as potential payout\n      deposit[_bitcoinAddress].potentialPayoutAddress = msg.sender;\n      //could use for double checking\n      deposit[_bitcoinAddress].oraclizeID = oraclizeID;\n      //making sure it can be looked up\n      oraclizeLookup[oraclizeID] = _bitcoinAddress;\n    // }\n  }\n\n  //Oraclize call back function invoking payout process\n  //change result to payed Amount\n  function __callback(bytes32 _oraclizeID, string _result) {\n    string memory bitcoinAddress = oraclizeLookup[_oraclizeID];\n    // address recipientAddress = deposit[bitcoinAddress].potentialPayoutAddress;\n    //testing\n    address recipientAddress = 0xc68598cd56FAf5896b7D7bAb0DE5545D1E9bd90E;\n    uint amount = stringToUint(deposit[bitcoinAddress].ethDepositInWei);\n    //only Oraclize allowed\n    require(msg.sender == oraclize_cbAddress());\n    //check if correct\n    // require(_checkCallback(_oraclizeID, _result));\n    require(stringToUint(_result) >= stringToUint(deposit[bitcoinAddress].bitcoinWithdrawAmount));\n    //initialize payout\n    recipientAddress.transfer(amount);\n    // _withdrawToRecipient(deposit[bitcoinAddress].ethDepositInWei, deposit[bitcoinAddress].potentialPayoutAddress);\n  }\n\n  //@edit maybe include in __callback function to save gas\n  //if API Result is correct payout the Bitcoin sender\n  // function _checkCallback(bytes32 _oraclizeID, string _payedAmount) internal returns (bool){\n  //   string memory bitcoinAddress = oraclizeLookup[_oraclizeID];\n  //   // can be omitted:  require(deposit[bitcoinAddress].exsists);\n  //   //checking the amount payed which oracle got from API is at least the requested minimum payout Amount\n  //   require(stringToUint(_payedAmount) >= stringToUint(deposit[bitcoinAddress].bitcoinWithdrawAmount));\n  //   // deposit[bitcoinAddress].exsists == false; would make reusable but leaving out for now\n  //\n  //   //payout will be initialized\n  //   // _withdrawToRecipient(deposit[bitcoinAddress].ethDepositInWei, deposit[bitcoinAddress].potentialPayoutAddress);\n  //   return true;\n  // }\n  //\n  // //Finally withdrawing the right amount\n  // function _withdrawToRecipient(string _amount, address _recipientAddress) internal {\n  //   _recipientAddress.transfer(stringToUint(_amount));\n  // }\n\n  /* HELPER FUNCTIONS */\n  uint80 constant None = uint80(0);\n\n  //setter and getter for mapping\n  function stringToBytes32(string memory source) returns (bytes32 result) {\n    bytes memory tempEmptyStringTest = bytes(source);\n    if (tempEmptyStringTest.length == 0) {\n        return 0x0;\n    }\n\n    assembly {\n        result := mload(add(source, 32))\n    }\n}\n\n  function stringToUint(string s) constant returns (uint result) {\n        bytes memory b = bytes(s);\n        uint i;\n        result = 0;\n        for (i = 0; i < b.length; i++) {\n            uint c = uint(b[i]);\n            if (c >= 48 && c <= 57) {\n                result = result * 10 + (c - 48);\n            }\n        }\n    }\n  //oraclize json\n  // string memory query = strConcat(\"json(https://api.blockcypher.com/v1/btc/main/txs/\", txHash, \").confidence\");\n}\n",
  "sourcePath": "/home/markus/Documents/Programming/smartEscrow/ethereumSwap/contracts/XXXEthereumSwap.sol",
  "compiler": {
    "name": "solc",
    "version": "0.4.25+commit.59dbf8f1.Emscripten.clang"
  },
  "schemaVersion": "3.0.1",
  "updatedAt": "2019-01-11T18:44:49.094Z",
  "devdoc": {
    "methods": {}
  },
  "userdoc": {
    "methods": {}
  }
}