{
  "contractName": "EthereumSwap",
  "abi": [
    {
      "constant": true,
      "inputs": [],
      "name": "secondOAR",
      "outputs": [
        {
          "name": "",
          "type": "address"
        }
      ],
      "payable": false,
      "stateMutability": "view",
      "type": "function",
      "signature": "0x638fc5cb"
    },
    {
      "constant": true,
      "inputs": [],
      "name": "oraclizePrice",
      "outputs": [
        {
          "name": "",
          "type": "uint256"
        }
      ],
      "payable": false,
      "stateMutability": "view",
      "type": "function",
      "signature": "0x726bd6bf"
    },
    {
      "constant": true,
      "inputs": [],
      "name": "minimumOfferValue",
      "outputs": [
        {
          "name": "",
          "type": "uint256"
        }
      ],
      "payable": false,
      "stateMutability": "view",
      "type": "function",
      "signature": "0x75f5acd2"
    },
    {
      "inputs": [
        {
          "name": "_oraclizeAddress",
          "type": "address"
        }
      ],
      "payable": false,
      "stateMutability": "nonpayable",
      "type": "constructor",
      "signature": "constructor"
    },
    {
      "anonymous": false,
      "inputs": [
        {
          "indexed": false,
          "name": "_recipientAddress",
          "type": "address"
        },
        {
          "indexed": false,
          "name": "_ethAmount",
          "type": "uint256"
        },
        {
          "indexed": false,
          "name": "_bitcoinAddress",
          "type": "string"
        }
      ],
      "name": "PayedOutEvent",
      "type": "event",
      "signature": "0xfe781380302acfc0d239b833af094b40d6f0f6aaae513da9f334751ac3540e2a"
    },
    {
      "anonymous": false,
      "inputs": [
        {
          "indexed": false,
          "name": "log",
          "type": "string"
        }
      ],
      "name": "LogInfo",
      "type": "event",
      "signature": "0xfee95ecae0c8f7f0743ec0ad254c78ab75e5ecca9f1ddcd9f11f9a98124b96bc"
    },
    {
      "constant": false,
      "inputs": [],
      "name": "getTestingOraclizeAddress",
      "outputs": [
        {
          "name": "",
          "type": "address"
        }
      ],
      "payable": false,
      "stateMutability": "nonpayable",
      "type": "function",
      "signature": "0x44275987"
    },
    {
      "constant": false,
      "inputs": [],
      "name": "getOraclizePrice",
      "outputs": [
        {
          "name": "",
          "type": "uint256"
        }
      ],
      "payable": false,
      "stateMutability": "nonpayable",
      "type": "function",
      "signature": "0x8f6f6115"
    },
    {
      "constant": false,
      "inputs": [
        {
          "name": "_bitcoinAddress",
          "type": "string"
        },
        {
          "name": "_bitcoinAmountinSatoshi",
          "type": "uint256"
        }
      ],
      "name": "depositEther",
      "outputs": [],
      "payable": true,
      "stateMutability": "payable",
      "type": "function",
      "signature": "0x99bb3a31"
    },
    {
      "constant": false,
      "inputs": [
        {
          "name": "_txHash",
          "type": "string"
        },
        {
          "name": "_bitcoinAddress",
          "type": "string"
        }
      ],
      "name": "getTransaction",
      "outputs": [],
      "payable": true,
      "stateMutability": "payable",
      "type": "function",
      "signature": "0x57b27701"
    },
    {
      "constant": false,
      "inputs": [
        {
          "name": "_oraclizeID",
          "type": "bytes32"
        },
        {
          "name": "_result",
          "type": "string"
        }
      ],
      "name": "__callback",
      "outputs": [],
      "payable": false,
      "stateMutability": "nonpayable",
      "type": "function",
      "signature": "0x27dc297e"
    },
    {
      "constant": false,
      "inputs": [
        {
          "name": "myid",
          "type": "bytes32"
        },
        {
          "name": "result",
          "type": "string"
        },
        {
          "name": "proof",
          "type": "bytes"
        }
      ],
      "name": "__callback",
      "outputs": [],
      "payable": false,
      "stateMutability": "nonpayable",
      "type": "function",
      "signature": "0x38bbfa50"
    },
    {
      "constant": false,
      "inputs": [
        {
          "name": "source",
          "type": "string"
        }
      ],
      "name": "stringToBytes32",
      "outputs": [
        {
          "name": "result",
          "type": "bytes32"
        }
      ],
      "payable": false,
      "stateMutability": "nonpayable",
      "type": "function",
      "signature": "0xcfb51928"
    },
    {
      "constant": true,
      "inputs": [
        {
          "name": "s",
          "type": "string"
        }
      ],
      "name": "stringToUint",
      "outputs": [
        {
          "name": "result",
          "type": "uint256"
        }
      ],
      "payable": false,
      "stateMutability": "view",
      "type": "function",
      "signature": "0x1bd95155"
    }
  ],
  "bytecode": "0x6080604052606460045534801561001557600080fd5b5060405160208061227283398101806040528101908080519060200190929190505050806000806101000a81548173ffffffffffffffffffffffffffffffffffffffff021916908373ffffffffffffffffffffffffffffffffffffffff16021790555080600260006101000a81548173ffffffffffffffffffffffffffffffffffffffff021916908373ffffffffffffffffffffffffffffffffffffffff160217905550506121a9806100c96000396000f3006080604052600436106100af576000357c0100000000000000000000000000000000000000000000000000000000900463ffffffff1680631bd95155146100b457806327dc297e1461013157806338bbfa50146101a8578063442759871461026557806357b27701146102bc578063638fc5cb1461035e578063726bd6bf146103b557806375f5acd2146103e05780638f6f61151461040b57806399bb3a3114610436578063cfb519281461049c575b600080fd5b3480156100c057600080fd5b5061011b600480360381019080803590602001908201803590602001908080601f0160208091040260200160405190810160405280939291908181526020018383808284378201915050505050509192919290505050610521565b6040518082815260200191505060405180910390f35b34801561013d57600080fd5b506101a66004803603810190808035600019169060200190929190803590602001908201803590602001908080601f01602080910402602001604051908101604052809392919081815260200183838082843782019150505050505091929192905050506105f3565b005b3480156101b457600080fd5b506102636004803603810190808035600019169060200190929190803590602001908201803590602001908080601f0160208091040260200160405190810160405280939291908181526020018383808284378201915050505050509192919290803590602001908201803590602001908080601f0160208091040260200160405190810160405280939291908181526020018383808284378201915050505050509192919290505050610a37565b005b34801561027157600080fd5b5061027a610a3c565b604051808273ffffffffffffffffffffffffffffffffffffffff1673ffffffffffffffffffffffffffffffffffffffff16815260200191505060405180910390f35b61035c600480360381019080803590602001908201803590602001908080601f0160208091040260200160405190810160405280939291908181526020018383808284378201915050505050509192919290803590602001908201803590602001908080601f0160208091040260200160405190810160405280939291908181526020018383808284378201915050505050509192919290505050610a66565b005b34801561036a57600080fd5b50610373610e4b565b604051808273ffffffffffffffffffffffffffffffffffffffff1673ffffffffffffffffffffffffffffffffffffffff16815260200191505060405180910390f35b3480156103c157600080fd5b506103ca610e71565b6040518082815260200191505060405180910390f35b3480156103ec57600080fd5b506103f5610e77565b6040518082815260200191505060405180910390f35b34801561041757600080fd5b50610420610e7d565b6040518082815260200191505060405180910390f35b61049a600480360381019080803590602001908201803590602001908080601f016020809104026020016040519081016040528093929190818152602001838380828437820191505050505050919291929080359060200190929190505050610e87565b005b3480156104a857600080fd5b50610503600480360381019080803590602001908201803590602001908080601f0160208091040260200160405190810160405280939291908181526020018383808284378201915050505050509192919290505050611087565b60405180826000191660001916815260200191505060405180910390f35b6000606060008084925060009350600091505b82518210156105eb57828281518110151561054b57fe5b9060200101517f010000000000000000000000000000000000000000000000000000000000000090047f0100000000000000000000000000000000000000000000000000000000000000027f010000000000000000000000000000000000000000000000000000000000000090049050603081101580156105cd575060398111155b156105de5760308103600a85020193505b8180600101925050610534565b505050919050565b60606000806106006110b2565b73ffffffffffffffffffffffffffffffffffffffff163373ffffffffffffffffffffffffffffffffffffffff1614151561063957600080fd5b6006600086600019166000191681526020019081526020016000208054600181600116156101000203166002900480601f0160208091040260200160405190810160405280929190818152602001828054600181600116156101000203166002900480156106e85780601f106106bd576101008083540402835291602001916106e8565b820191906000526020600020905b8154815290600101906020018083116106cb57829003601f168201915b5050505050925073c68598cd56faf5896b7d7bab0de5545d1e9bd90e91506005836040518082805190602001908083835b60208310151561073e5780518252602082019150602081019050602083039250610719565b6001836020036101000a03801982511681845116808217855250505050505090500191505090815260200160405180910390206002015461077e85610521565b1015156109a1576005836040518082805190602001908083835b6020831015156107bd5780518252602082019150602081019050602083039250610798565b6001836020036101000a03801982511681845116808217855250505050505090500191505090815260200160405180910390206001015490508173ffffffffffffffffffffffffffffffffffffffff166108fc829081150290604051600060405180830381858888f1935050505015801561083c573d6000803e3d6000fd5b5060006005846040518082805190602001908083835b6020831015156108775780518252602082019150602081019050602083039250610852565b6001836020036101000a038019825116818451168082178552505050505050905001915050908152602001604051809103902060000160006101000a81548160ff0219169083151502179055507ffe781380302acfc0d239b833af094b40d6f0f6aaae513da9f334751ac3540e2a828285604051808473ffffffffffffffffffffffffffffffffffffffff1673ffffffffffffffffffffffffffffffffffffffff16815260200183815260200180602001828103825283818151815260200191508051906020019080838360005b83811015610960578082015181840152602081019050610945565b50505050905090810190601f16801561098d5780820380516001836020036101000a031916815260200191505b5094505050505060405180910390a1610a30565b7ffee95ecae0c8f7f0743ec0ad254c78ab75e5ecca9f1ddcd9f11f9a98124b96bc6040518080602001828103825260388152602001807f5468652073656e64656420626974636f696e416d6f756e742077617320746f6f81526020017f20736d616c6c206f72206e6f6e20657873697374696e6720000000000000000081525060400191505060405180910390a15b5050505050565b505050565b6000600260009054906101000a900473ffffffffffffffffffffffffffffffffffffffff16905090565b606060006005836040518082805190602001908083835b602083101515610aa25780518252602082019150602081019050602083039250610a7d565b6001836020036101000a038019825116818451168082178552505050505050905001915050908152602001604051809103902060000160009054906101000a900460ff161515610af157600080fd5b610b2f6040805190810160405280600381526020017f55524c00000000000000000000000000000000000000000000000000000000008152506112c5565b600381905550600115610d9057610bd9606060405190810160405280602381526020017f68747470733a2f2f626c6f636b636861696e2e696e666f2f712f74787265737581526020017f6c742f0000000000000000000000000000000000000000000000000000000000815250856040805190810160405280600181526020017f2f000000000000000000000000000000000000000000000000000000000000008152508661154a565b9150610c1e6040805190810160405280600381526020017f55524c0000000000000000000000000000000000000000000000000000000000815250836207a121611573565b9050336005846040518082805190602001908083835b602083101515610c595780518252602082019150602081019050602083039250610c34565b6001836020036101000a038019825116818451168082178552505050505050905001915050908152602001604051809103902060030160006101000a81548173ffffffffffffffffffffffffffffffffffffffff021916908373ffffffffffffffffffffffffffffffffffffffff160217905550826006600083600019166000191681526020019081526020016000209080519060200190610cfc92919061208d565b507ffee95ecae0c8f7f0743ec0ad254c78ab75e5ecca9f1ddcd9f11f9a98124b96bc6040518080602001828103825260358152602001807f4f7261636c697a65207175657279207761732073656e742c207374616e64696e81526020017f6720627920666f722074686520616e737765722e2e000000000000000000000081525060400191505060405180910390a1610e45565b7ffee95ecae0c8f7f0743ec0ad254c78ab75e5ecca9f1ddcd9f11f9a98124b96bc60405180806020018281038252604b8152602001807f4f7261636c697a6520717565727920776173204e4f542073656e742c20706c6581526020017f6173652061646420736f6d652045544820746f20636f76657220666f7220746881526020017f652071756572792066656500000000000000000000000000000000000000000081525060600191505060405180910390a15b50505050565b600260009054906101000a900473ffffffffffffffffffffffffffffffffffffffff1681565b60035481565b60045481565b6000600354905090565b610e8f61210d565b60a060405190810160405280600115158152602001348152602001838152602001600069ffffffffffffffffffff1673ffffffffffffffffffffffffffffffffffffffff168152602001610f176040805190810160405280600181526020017f3000000000000000000000000000000000000000000000000000000000000000815250611087565b600019168152509050806005846040518082805190602001908083835b602083101515610f595780518252602082019150602081019050602083039250610f34565b6001836020036101000a038019825116818451168082178552505050505050905001915050908152602001604051809103902060008201518160000160006101000a81548160ff021916908315150217905550602082015181600101556040820151816002015560608201518160030160006101000a81548173ffffffffffffffffffffffffffffffffffffffff021916908373ffffffffffffffffffffffffffffffffffffffff160217905550608082015181600401906000191690559050507ffee95ecae0c8f7f0743ec0ad254c78ab75e5ecca9f1ddcd9f11f9a98124b96bc60405180806020018281038252601f8152602001807f457468657220776173206465706f736974656420746f20636f6e74726163740081525060200191505060405180910390a1505050565b600060608290506000815114156110a457600060010291506110ac565b602083015191505b50919050565b6000806000809054906101000a900473ffffffffffffffffffffffffffffffffffffffff1673ffffffffffffffffffffffffffffffffffffffff1614156110ff576110fd60006119d8565b505b6000809054906101000a900473ffffffffffffffffffffffffffffffffffffffff1673ffffffffffffffffffffffffffffffffffffffff166338cc48316040518163ffffffff167c0100000000000000000000000000000000000000000000000000000000028152600401602060405180830381600087803b15801561118457600080fd5b505af1158015611198573d6000803e3d6000fd5b505050506040513d60208110156111ae57600080fd5b8101908080519060200190929190505050600160006101000a81548173ffffffffffffffffffffffffffffffffffffffff021916908373ffffffffffffffffffffffffffffffffffffffff160217905550600160009054906101000a900473ffffffffffffffffffffffffffffffffffffffff1673ffffffffffffffffffffffffffffffffffffffff1663c281d19e6040518163ffffffff167c0100000000000000000000000000000000000000000000000000000000028152600401602060405180830381600087803b15801561128557600080fd5b505af1158015611299573d6000803e3d6000fd5b505050506040513d60208110156112af57600080fd5b8101908080519060200190929190505050905090565b6000806000809054906101000a900473ffffffffffffffffffffffffffffffffffffffff1673ffffffffffffffffffffffffffffffffffffffff1614156113125761131060006119d8565b505b6000809054906101000a900473ffffffffffffffffffffffffffffffffffffffff1673ffffffffffffffffffffffffffffffffffffffff166338cc48316040518163ffffffff167c0100000000000000000000000000000000000000000000000000000000028152600401602060405180830381600087803b15801561139757600080fd5b505af11580156113ab573d6000803e3d6000fd5b505050506040513d60208110156113c157600080fd5b8101908080519060200190929190505050600160006101000a81548173ffffffffffffffffffffffffffffffffffffffff021916908373ffffffffffffffffffffffffffffffffffffffff160217905550600160009054906101000a900473ffffffffffffffffffffffffffffffffffffffff1673ffffffffffffffffffffffffffffffffffffffff1663524f3889836040518263ffffffff167c01000000000000000000000000000000000000000000000000000000000281526004018080602001828103825283818151815260200191508051906020019080838360005b838110156114bc5780820151818401526020810190506114a1565b50505050905090810190601f1680156114e95780820380516001836020036101000a031916815260200191505b5092505050602060405180830381600087803b15801561150857600080fd5b505af115801561151c573d6000803e3d6000fd5b505050506040513d602081101561153257600080fd5b81019080805190602001909291905050509050919050565b6060611569858585856020604051908101604052806000815250611c6d565b9050949350505050565b60008060008060009054906101000a900473ffffffffffffffffffffffffffffffffffffffff1673ffffffffffffffffffffffffffffffffffffffff1614156115c2576115c060006119d8565b505b6000809054906101000a900473ffffffffffffffffffffffffffffffffffffffff1673ffffffffffffffffffffffffffffffffffffffff166338cc48316040518163ffffffff167c0100000000000000000000000000000000000000000000000000000000028152600401602060405180830381600087803b15801561164757600080fd5b505af115801561165b573d6000803e3d6000fd5b505050506040513d602081101561167157600080fd5b8101908080519060200190929190505050600160006101000a81548173ffffffffffffffffffffffffffffffffffffffff021916908373ffffffffffffffffffffffffffffffffffffffff160217905550600160009054906101000a900473ffffffffffffffffffffffffffffffffffffffff1673ffffffffffffffffffffffffffffffffffffffff16632ef3accc86856040518363ffffffff167c01000000000000000000000000000000000000000000000000000000000281526004018080602001838152602001828103825284818151815260200191508051906020019080838360005b83811015611773578082015181840152602081019050611758565b50505050905090810190601f1680156117a05780820380516001836020036101000a031916815260200191505b509350505050602060405180830381600087803b1580156117c057600080fd5b505af11580156117d4573d6000803e3d6000fd5b505050506040513d60208110156117ea57600080fd5b81019080805190602001909291905050509050823a02670de0b6b3a76400000181111561181d57600060010291506119d0565b600160009054906101000a900473ffffffffffffffffffffffffffffffffffffffff1673ffffffffffffffffffffffffffffffffffffffff1663c51be90f8260008888886040518663ffffffff167c0100000000000000000000000000000000000000000000000000000000028152600401808581526020018060200180602001848152602001838103835286818151815260200191508051906020019080838360005b838110156118dc5780820151818401526020810190506118c1565b50505050905090810190601f1680156119095780820380516001836020036101000a031916815260200191505b50838103825285818151815260200191508051906020019080838360005b83811015611942578082015181840152602081019050611927565b50505050905090810190601f16801561196f5780820380516001836020036101000a031916815260200191505b5096505050505050506020604051808303818588803b15801561199157600080fd5b505af11580156119a5573d6000803e3d6000fd5b50505050506040513d60208110156119bc57600080fd5b810190808051906020019092919050505091505b509392505050565b6000806119f8731d3b2638a7cc9f2cb3d298a3da7a90b67e5506ed612082565b1115611a5b57731d3b2638a7cc9f2cb3d298a3da7a90b67e5506ed6000806101000a81548173ffffffffffffffffffffffffffffffffffffffff021916908373ffffffffffffffffffffffffffffffffffffffff16021790555060019050611c68565b6000611a7a73c03a2615d5efaf5f49f60b7bb6583eaec212fdf1612082565b1115611add5773c03a2615d5efaf5f49f60b7bb6583eaec212fdf16000806101000a81548173ffffffffffffffffffffffffffffffffffffffff021916908373ffffffffffffffffffffffffffffffffffffffff16021790555060019050611c68565b6000611afc7320e12a1f859b3feae5fb2a0a32c18f5a65555bbf612082565b1115611b5f577320e12a1f859b3feae5fb2a0a32c18f5a65555bbf6000806101000a81548173ffffffffffffffffffffffffffffffffffffffff021916908373ffffffffffffffffffffffffffffffffffffffff16021790555060019050611c68565b6000611b7e7393bbbe5ce77034e3095f0479919962a903f898ad612082565b1115611be1577393bbbe5ce77034e3095f0479919962a903f898ad6000806101000a81548173ffffffffffffffffffffffffffffffffffffffff021916908373ffffffffffffffffffffffffffffffffffffffff16021790555060019050611c68565b6000611c007351efaf4c8b3c9afbd5ab9f4bbc82784ab6ef8faa612082565b1115611c63577351efaf4c8b3c9afbd5ab9f4bbc82784ab6ef8faa6000806101000a81548173ffffffffffffffffffffffffffffffffffffffff021916908373ffffffffffffffffffffffffffffffffffffffff16021790555060019050611c68565b600090505b919050565b6060806060806060806060806000808e98508d97508c96508b95508a94508451865188518a518c51010101016040519080825280601f01601f191660200182016040528015611ccb5781602001602082028038833980820191505090505b50935083925060009150600090505b8851811015611d8d578881815181101515611cf157fe5b9060200101517f010000000000000000000000000000000000000000000000000000000000000090047f0100000000000000000000000000000000000000000000000000000000000000028383806001019450815181101515611d5057fe5b9060200101907effffffffffffffffffffffffffffffffffffffffffffffffffffffffffffff1916908160001a9053508080600101915050611cda565b600090505b8751811015611e45578781815181101515611da957fe5b9060200101517f010000000000000000000000000000000000000000000000000000000000000090047f0100000000000000000000000000000000000000000000000000000000000000028383806001019450815181101515611e0857fe5b9060200101907effffffffffffffffffffffffffffffffffffffffffffffffffffffffffffff1916908160001a9053508080600101915050611d92565b600090505b8651811015611efd578681815181101515611e6157fe5b9060200101517f010000000000000000000000000000000000000000000000000000000000000090047f0100000000000000000000000000000000000000000000000000000000000000028383806001019450815181101515611ec057fe5b9060200101907effffffffffffffffffffffffffffffffffffffffffffffffffffffffffffff1916908160001a9053508080600101915050611e4a565b600090505b8551811015611fb5578581815181101515611f1957fe5b9060200101517f010000000000000000000000000000000000000000000000000000000000000090047f0100000000000000000000000000000000000000000000000000000000000000028383806001019450815181101515611f7857fe5b9060200101907effffffffffffffffffffffffffffffffffffffffffffffffffffffffffffff1916908160001a9053508080600101915050611f02565b600090505b845181101561206d578481815181101515611fd157fe5b9060200101517f010000000000000000000000000000000000000000000000000000000000000090047f010000000000000000000000000000000000000000000000000000000000000002838380600101945081518110151561203057fe5b9060200101907effffffffffffffffffffffffffffffffffffffffffffffffffffffffffffff1916908160001a9053508080600101915050611fba565b82995050505050505050505095945050505050565b6000813b9050919050565b828054600181600116156101000203166002900490600052602060002090601f016020900481019282601f106120ce57805160ff19168380011785556120fc565b828001600101855582156120fc579182015b828111156120fb5782518255916020019190600101906120e0565b5b5090506121099190612158565b5090565b60a0604051908101604052806000151581526020016000815260200160008152602001600073ffffffffffffffffffffffffffffffffffffffff168152602001600080191681525090565b61217a91905b8082111561217657600081600090555060010161215e565b5090565b905600a165627a7a72305820dcd2d94498d6f2a8cc0c174bb18ad0691dc4f3fe0a8defe69a25b39302dd7ee10029",
  "source": "pragma solidity ^0.4.0;//please import oraclizeAPI_pre0.4.sol when solidity < 0.4.0\n\ncontract OraclizeI {\n    address public cbAddress;\n    function query(uint _timestamp, string _datasource, string _arg) payable returns (bytes32 _id);\n    function query_withGasLimit(uint _timestamp, string _datasource, string _arg, uint _gaslimit) payable returns (bytes32 _id);\n    function query2(uint _timestamp, string _datasource, string _arg1, string _arg2) payable returns (bytes32 _id);\n    function query2_withGasLimit(uint _timestamp, string _datasource, string _arg1, string _arg2, uint _gaslimit) payable returns (bytes32 _id);\n    function getPrice(string _datasource) returns (uint _dsprice);\n    function getPrice(string _datasource, uint gaslimit) returns (uint _dsprice);\n    function useCoupon(string _coupon);\n    function setProofType(byte _proofType);\n    function setConfig(bytes32 _config);\n    function setCustomGasPrice(uint _gasPrice);\n}\ncontract OraclizeAddrResolverI {\n    function getAddress() returns (address _addr);\n}\ncontract usingOraclize {\n    uint constant day = 60*60*24;\n    uint constant week = 60*60*24*7;\n    uint constant month = 60*60*24*30;\n    byte constant proofType_NONE = 0x00;\n    byte constant proofType_TLSNotary = 0x10;\n    byte constant proofStorage_IPFS = 0x01;\n    uint8 constant networkID_auto = 0;\n    uint8 constant networkID_mainnet = 1;\n    uint8 constant networkID_testnet = 2;\n    uint8 constant networkID_morden = 2;\n    uint8 constant networkID_consensys = 161;\n\n    OraclizeAddrResolverI OAR;\n\n    OraclizeI oraclize;\n    modifier oraclizeAPI {\n        if(address(OAR)==0) oraclize_setNetwork(networkID_auto);\n        oraclize = OraclizeI(OAR.getAddress());\n        _;\n    }\n    modifier coupon(string code){\n        oraclize = OraclizeI(OAR.getAddress());\n        oraclize.useCoupon(code);\n        _;\n    }\n\n    function oraclize_setNetwork(uint8 networkID) internal returns(bool){\n        if (getCodeSize(0x1d3b2638a7cc9f2cb3d298a3da7a90b67e5506ed)>0){ //mainnet\n            OAR = OraclizeAddrResolverI(0x1d3b2638a7cc9f2cb3d298a3da7a90b67e5506ed);\n            return true;\n        }\n        if (getCodeSize(0xc03a2615d5efaf5f49f60b7bb6583eaec212fdf1)>0){ //ropsten testnet\n            OAR = OraclizeAddrResolverI(0xc03a2615d5efaf5f49f60b7bb6583eaec212fdf1);\n            return true;\n        }\n        if (getCodeSize(0x20e12a1f859b3feae5fb2a0a32c18f5a65555bbf)>0){ //ether.camp ide\n            OAR = OraclizeAddrResolverI(0x20e12a1f859b3feae5fb2a0a32c18f5a65555bbf);\n            return true;\n        }\n        if (getCodeSize(0x93bbbe5ce77034e3095f0479919962a903f898ad)>0){ //norsborg testnet\n            OAR = OraclizeAddrResolverI(0x93bbbe5ce77034e3095f0479919962a903f898ad);\n            return true;\n        }\n        if (getCodeSize(0x51efaf4c8b3c9afbd5ab9f4bbc82784ab6ef8faa)>0){ //browser-solidity\n            OAR = OraclizeAddrResolverI(0x51efaf4c8b3c9afbd5ab9f4bbc82784ab6ef8faa);\n            return true;\n        }\n        return false;\n    }\n\n    function __callback(bytes32 myid, string result) {\n        __callback(myid, result, new bytes(0));\n    }\n    function __callback(bytes32 myid, string result, bytes proof) {\n    }\n\n    function oraclize_getPrice(string datasource) oraclizeAPI internal returns (uint){\n        return oraclize.getPrice(datasource);\n    }\n    function oraclize_getPrice(string datasource, uint gaslimit) oraclizeAPI internal returns (uint){\n        return oraclize.getPrice(datasource, gaslimit);\n    }\n\n    function oraclize_query(string datasource, string arg) oraclizeAPI internal returns (bytes32 id){\n        uint price = oraclize.getPrice(datasource);\n        if (price > 1 ether + tx.gasprice*200000) return 0; // unexpectedly high price\n        return oraclize.query.value(price)(0, datasource, arg);\n    }\n    function oraclize_query(uint timestamp, string datasource, string arg) oraclizeAPI internal returns (bytes32 id){\n        uint price = oraclize.getPrice(datasource);\n        if (price > 1 ether + tx.gasprice*200000) return 0; // unexpectedly high price\n        return oraclize.query.value(price)(timestamp, datasource, arg);\n    }\n    function oraclize_query(uint timestamp, string datasource, string arg, uint gaslimit) oraclizeAPI internal returns (bytes32 id){\n        uint price = oraclize.getPrice(datasource, gaslimit);\n        if (price > 1 ether + tx.gasprice*gaslimit) return 0; // unexpectedly high price\n        return oraclize.query_withGasLimit.value(price)(timestamp, datasource, arg, gaslimit);\n    }\n    function oraclize_query(string datasource, string arg, uint gaslimit) oraclizeAPI internal returns (bytes32 id){\n        uint price = oraclize.getPrice(datasource, gaslimit);\n        if (price > 1 ether + tx.gasprice*gaslimit) return 0; // unexpectedly high price\n        return oraclize.query_withGasLimit.value(price)(0, datasource, arg, gaslimit);\n    }\n    function oraclize_query(string datasource, string arg1, string arg2) oraclizeAPI internal returns (bytes32 id){\n        uint price = oraclize.getPrice(datasource);\n        if (price > 1 ether + tx.gasprice*200000) return 0; // unexpectedly high price\n        return oraclize.query2.value(price)(0, datasource, arg1, arg2);\n    }\n    function oraclize_query(uint timestamp, string datasource, string arg1, string arg2) oraclizeAPI internal returns (bytes32 id){\n        uint price = oraclize.getPrice(datasource);\n        if (price > 1 ether + tx.gasprice*200000) return 0; // unexpectedly high price\n        return oraclize.query2.value(price)(timestamp, datasource, arg1, arg2);\n    }\n    function oraclize_query(uint timestamp, string datasource, string arg1, string arg2, uint gaslimit) oraclizeAPI internal returns (bytes32 id){\n        uint price = oraclize.getPrice(datasource, gaslimit);\n        if (price > 1 ether + tx.gasprice*gaslimit) return 0; // unexpectedly high price\n        return oraclize.query2_withGasLimit.value(price)(timestamp, datasource, arg1, arg2, gaslimit);\n    }\n    function oraclize_query(string datasource, string arg1, string arg2, uint gaslimit) oraclizeAPI internal returns (bytes32 id){\n        uint price = oraclize.getPrice(datasource, gaslimit);\n        if (price > 1 ether + tx.gasprice*gaslimit) return 0; // unexpectedly high price\n        return oraclize.query2_withGasLimit.value(price)(0, datasource, arg1, arg2, gaslimit);\n    }\n    function oraclize_cbAddress() oraclizeAPI internal returns (address){\n        return oraclize.cbAddress();\n    }\n    function oraclize_setProof(byte proofP) oraclizeAPI internal {\n        return oraclize.setProofType(proofP);\n    }\n    function oraclize_setCustomGasPrice(uint gasPrice) oraclizeAPI internal {\n        return oraclize.setCustomGasPrice(gasPrice);\n    }\n    function oraclize_setConfig(bytes32 config) oraclizeAPI internal {\n        return oraclize.setConfig(config);\n    }\n\n    function getCodeSize(address _addr) constant internal returns(uint _size) {\n        assembly {\n            _size := extcodesize(_addr)\n        }\n    }\n\n\n    function parseAddr(string _a) internal returns (address){\n        bytes memory tmp = bytes(_a);\n        uint160 iaddr = 0;\n        uint160 b1;\n        uint160 b2;\n        for (uint i=2; i<2+2*20; i+=2){\n            iaddr *= 256;\n            b1 = uint160(tmp[i]);\n            b2 = uint160(tmp[i+1]);\n            if ((b1 >= 97)&&(b1 <= 102)) b1 -= 87;\n            else if ((b1 >= 48)&&(b1 <= 57)) b1 -= 48;\n            if ((b2 >= 97)&&(b2 <= 102)) b2 -= 87;\n            else if ((b2 >= 48)&&(b2 <= 57)) b2 -= 48;\n            iaddr += (b1*16+b2);\n        }\n        return address(iaddr);\n    }\n\n\n    function strCompare(string _a, string _b) internal returns (int) {\n        bytes memory a = bytes(_a);\n        bytes memory b = bytes(_b);\n        uint minLength = a.length;\n        if (b.length < minLength) minLength = b.length;\n        for (uint i = 0; i < minLength; i ++)\n            if (a[i] < b[i])\n                return -1;\n            else if (a[i] > b[i])\n                return 1;\n        if (a.length < b.length)\n            return -1;\n        else if (a.length > b.length)\n            return 1;\n        else\n            return 0;\n   }\n\n    function indexOf(string _haystack, string _needle) internal returns (int)\n    {\n        bytes memory h = bytes(_haystack);\n        bytes memory n = bytes(_needle);\n        if(h.length < 1 || n.length < 1 || (n.length > h.length))\n            return -1;\n        else if(h.length > (2**128 -1))\n            return -1;\n        else\n        {\n            uint subindex = 0;\n            for (uint i = 0; i < h.length; i ++)\n            {\n                if (h[i] == n[0])\n                {\n                    subindex = 1;\n                    while(subindex < n.length && (i + subindex) < h.length && h[i + subindex] == n[subindex])\n                    {\n                        subindex++;\n                    }\n                    if(subindex == n.length)\n                        return int(i);\n                }\n            }\n            return -1;\n        }\n    }\n\n    function strConcat(string _a, string _b, string _c, string _d, string _e) internal returns (string){\n        bytes memory _ba = bytes(_a);\n        bytes memory _bb = bytes(_b);\n        bytes memory _bc = bytes(_c);\n        bytes memory _bd = bytes(_d);\n        bytes memory _be = bytes(_e);\n        string memory abcde = new string(_ba.length + _bb.length + _bc.length + _bd.length + _be.length);\n        bytes memory babcde = bytes(abcde);\n        uint k = 0;\n        for (uint i = 0; i < _ba.length; i++) babcde[k++] = _ba[i];\n        for (i = 0; i < _bb.length; i++) babcde[k++] = _bb[i];\n        for (i = 0; i < _bc.length; i++) babcde[k++] = _bc[i];\n        for (i = 0; i < _bd.length; i++) babcde[k++] = _bd[i];\n        for (i = 0; i < _be.length; i++) babcde[k++] = _be[i];\n        return string(babcde);\n    }\n\n    function strConcat(string _a, string _b, string _c, string _d) internal returns (string) {\n        return strConcat(_a, _b, _c, _d, \"\");\n    }\n\n    function strConcat(string _a, string _b, string _c) internal returns (string) {\n        return strConcat(_a, _b, _c, \"\", \"\");\n    }\n\n    function strConcat(string _a, string _b) internal returns (string) {\n        return strConcat(_a, _b, \"\", \"\", \"\");\n    }\n\n    // parseInt\n    function parseInt(string _a) internal returns (uint) {\n        return parseInt(_a, 0);\n    }\n\n    // parseInt(parseFloat*10^_b)\n    function parseInt(string _a, uint _b) internal returns (uint) {\n        bytes memory bresult = bytes(_a);\n        uint mint = 0;\n        bool decimals = false;\n        for (uint i=0; i<bresult.length; i++){\n            if ((bresult[i] >= 48)&&(bresult[i] <= 57)){\n                if (decimals){\n                   if (_b == 0) break;\n                    else _b--;\n                }\n                mint *= 10;\n                mint += uint(bresult[i]) - 48;\n            } else if (bresult[i] == 46) decimals = true;\n        }\n        if (_b > 0) mint *= 10**_b;\n        return mint;\n    }\n\n    function uint2str(uint i) internal returns (string){\n        if (i == 0) return \"0\";\n        uint j = i;\n        uint len;\n        while (j != 0){\n            len++;\n            j /= 10;\n        }\n        bytes memory bstr = new bytes(len);\n        uint k = len - 1;\n        while (i != 0){\n            bstr[k--] = byte(48 + i % 10);\n            i /= 10;\n        }\n        return string(bstr);\n    }\n\n\n\n}\n// </ORACLIZE_API>\n\n// <SafeMath_Lib>\n\n/**\n * @title SafeMath\n * @dev Math operations with safety checks that revert on error\n */\nlibrary SafeMath {\n    int256 constant private INT256_MIN = -2**255;\n\n    /**\n    * @dev Multiplies two unsigned integers, reverts on overflow.\n    */\n    function mul(uint256 a, uint256 b) internal pure returns (uint256) {\n        // Gas optimization: this is cheaper than requiring 'a' not being zero, but the\n        // benefit is lost if 'b' is also tested.\n        // See: https://github.com/OpenZeppelin/openzeppelin-solidity/pull/522\n        if (a == 0) {\n            return 0;\n        }\n\n        uint256 c = a * b;\n        require(c / a == b);\n\n        return c;\n    }\n\n    /**\n    * @dev Multiplies two signed integers, reverts on overflow.\n    */\n    function mul(int256 a, int256 b) internal pure returns (int256) {\n        // Gas optimization: this is cheaper than requiring 'a' not being zero, but the\n        // benefit is lost if 'b' is also tested.\n        // See: https://github.com/OpenZeppelin/openzeppelin-solidity/pull/522\n        if (a == 0) {\n            return 0;\n        }\n\n        require(!(a == -1 && b == INT256_MIN)); // This is the only case of overflow not detected by the check below\n\n        int256 c = a * b;\n        require(c / a == b);\n\n        return c;\n    }\n\n    /**\n    * @dev Integer division of two unsigned integers truncating the quotient, reverts on division by zero.\n    */\n    function div(uint256 a, uint256 b) internal pure returns (uint256) {\n        // Solidity only automatically asserts when dividing by 0\n        require(b > 0);\n        uint256 c = a / b;\n        // assert(a == b * c + a % b); // There is no case in which this doesn't hold\n\n        return c;\n    }\n\n    /**\n    * @dev Integer division of two signed integers truncating the quotient, reverts on division by zero.\n    */\n    function div(int256 a, int256 b) internal pure returns (int256) {\n        require(b != 0); // Solidity only automatically asserts when dividing by 0\n        require(!(b == -1 && a == INT256_MIN)); // This is the only case of overflow\n\n        int256 c = a / b;\n\n        return c;\n    }\n\n    /**\n    * @dev Subtracts two unsigned integers, reverts on overflow (i.e. if subtrahend is greater than minuend).\n    */\n    function sub(uint256 a, uint256 b) internal pure returns (uint256) {\n        require(b <= a);\n        uint256 c = a - b;\n\n        return c;\n    }\n\n    /**\n    * @dev Subtracts two signed integers, reverts on overflow.\n    */\n    function sub(int256 a, int256 b) internal pure returns (int256) {\n        int256 c = a - b;\n        require((b >= 0 && c <= a) || (b < 0 && c > a));\n\n        return c;\n    }\n\n    /**\n    * @dev Adds two unsigned integers, reverts on overflow.\n    */\n    function add(uint256 a, uint256 b) internal pure returns (uint256) {\n        uint256 c = a + b;\n        require(c >= a);\n\n        return c;\n    }\n\n    /**\n    * @dev Adds two signed integers, reverts on overflow.\n    */\n    function add(int256 a, int256 b) internal pure returns (int256) {\n        int256 c = a + b;\n        require((b >= 0 && c >= a) || (b < 0 && c < a));\n\n        return c;\n    }\n\n    /**\n    * @dev Divides two unsigned integers and returns the remainder (unsigned integer modulo),\n    * reverts when dividing by zero.\n    */\n    function mod(uint256 a, uint256 b) internal pure returns (uint256) {\n        require(b != 0);\n        return a % b;\n    }\n}\n// </SafeMath_Lib>\n\n\n/// @title Smart Escrow Contract for swapping eth to btc using oracliize\n/// @dev use ethereum-bridge for local testing https://github.com/oraclize/ethereum-bridge\ncontract EthereumSwap is usingOraclize {\n\n  // Implementing Safe Math Library\n  using SafeMath for uint;\n\n  address public secondOAR;\n\n  uint public oraclizePrice;\n\n  uint public minimumOfferValue = 100;\n\n  // Offer Struct for creating an Bitcoin Offer for the smart contract\n  struct Offer {\n      bool exsists;\n      uint ethDepositInWei;\n      uint bitcoinWithdrawAmount;\n      address potentialPayoutAddress;\n      bytes32 oraclizeID;\n    }\n\n  // mapping for checking payout with the string bitcoinAddress as key\n  // note: (solidity uses a sha3 hashmap)\n  mapping(string => Offer) deposit;\n\n  // mapping for checking the checking oraclize callback _oraclizeID => _result\n  mapping(bytes32 => string) oraclizeLookup;\n\n  // Log event to notify UI and DB when user was sucessfull payed out\n  event PayedOutEvent(\n        address  _recipientAddress,\n        uint  _ethAmount,\n        string  _bitcoinAddress\n  );\n  // General Purpose Log Event for strings\n  event LogInfo(\n    string log\n  );\n\n  function getTestingOraclizeAddress() public returns(address){\n    return secondOAR;\n  }\n  function getOraclizePrice() public returns (uint){\n    return oraclizePrice;\n  }\n\n\n  /// ONLY USED FOR TESTING\n  /// @notice Constructor only used in testing for Oraclize Bridge with ethereum-bridge\n  function EthereumSwap(address _oraclizeAddress) public {\n    OAR = OraclizeAddrResolverI(_oraclizeAddress);\n    secondOAR = _oraclizeAddress;\n\n  }\n\n  /// @notice Deposited by sender how wants to get Bitcoin for his Ether assigning the contract values\n  /// @notice The Bitcoin Address should  be new and not have any prior Transacitions (checked by UI) and should not exsist in mapping!\n  /// @param _bitcoinAddress The Bitcoin Address to which a doner will pay money to\n  /// @param _bitcoinAmountinSatoshi amount in Satoshi for which eth can withdrawed\n  function depositEther(string _bitcoinAddress, uint _bitcoinAmountinSatoshi) payable public {\n      // ONLY USED FOR TESTING\n      // require(!deposit[_bitcoinAddress].exsists);\n      // require (msg.value >= minimumOfferValue)\n      // TODO should require string length > 0 && <= bitcoinAddresslength\n      Offer memory paymentStruct = Offer({\n                                  exsists:true,\n                                  ethDepositInWei: msg.value,\n                                  bitcoinWithdrawAmount:_bitcoinAmountinSatoshi,\n                                  potentialPayoutAddress: None,\n                                  oraclizeID: stringToBytes32(\"0\") //fix this with 0x0\n                                });\n\n      deposit[_bitcoinAddress] = paymentStruct;\n      emit LogInfo(\"Ether was deposited to contract\");\n\n  }\n\n  /// @notice Oraclize call, Bitcoin sender calls this function with his  and recipient Address which will invoke call back function\n  /// @notice payable because oraclize call needs gas and this is preventing fraud\n  /// @param _txHash The Bitcoin tx Hash prooving the doner payed money to it\n  /// @param _bitcoinAddress The Bitcoin Address to which a doner has payed money to\n  function getTransaction(string _txHash, string _bitcoinAddress) payable {\n    require(deposit[_bitcoinAddress].exsists);\n\n    oraclizePrice = oraclize_getPrice(\"URL\");\n    // if (oraclize_getPrice(\"URL\") <= msg.value) {\n    if (true) {\n\n      // string memory query = \"https://blockchain.info/q/txresult/b1ddc46ad47f6f95d75129281b22636d5b19a06bcf534305b018fd8e688265e1/3GZSJ47MPBw3swTZtCTSK8XeZNPed25bf9\";\n      string memory query = strConcat(\"https://blockchain.info/q/txresult/\", _txHash, \"/\", _bitcoinAddress);\n\n      bytes32 oraclizeID = oraclize_query(\"URL\", query, 500001);\n\n      // testingOraclizeId = oraclizeID;\n\n      deposit[_bitcoinAddress].potentialPayoutAddress = msg.sender;\n\n      oraclizeLookup[oraclizeID] = _bitcoinAddress;\n\n      emit LogInfo(\"Oraclize query was sent, standing by for the answer..\");\n\n    } else {\n\n      emit LogInfo(\"Oraclize query was NOT sent, please add some ETH to cover for the query fee\");\n\n    }\n  }\n\n  /// @notice Oraclize call back function invoking payout process\n  /// @notice payable because oraclize call needs gas and this is preventing fraud\n  /// @param _oraclizeID The byte represation of an Oraclize ID returned when query sent\n  /// @param _result Result of the API call, contating the value of transaction to address\n  function __callback(bytes32 _oraclizeID, string _result) {\n    require(msg.sender == oraclize_cbAddress());\n\n    string memory bitcoinAddress = oraclizeLookup[_oraclizeID];\n\n    address recipientAddress = 0xc68598cd56FAf5896b7D7bAb0DE5545D1E9bd90E;\n    // address recipientAddress = deposit[bitcoinAddress].potentialPayoutAddress;\n    // require(stringToUint(_result) >= stringToUint(deposit[bitcoinAddress].bitcoinWithdrawAmount));\n\n    if(stringToUint(_result) >= deposit[bitcoinAddress].bitcoinWithdrawAmount){\n\n      uint ethAmount = deposit[bitcoinAddress].ethDepositInWei;\n      //use transaction Hash here\n      recipientAddress.transfer(ethAmount);\n\n      deposit[bitcoinAddress].exsists = false;\n\n      emit PayedOutEvent(recipientAddress, ethAmount, bitcoinAddress);\n\n    } else {\n      emit LogInfo(\"The sended bitcoinAmount was too small or non exsisting \");\n    }\n\n  }\n\n\n\n\n  /* HELPER FUNCTIONS */\n  uint80 constant None = uint80(0);\n\n  //setter and getter for mapping\n  function stringToBytes32(string memory source) returns (bytes32 result) {\n    bytes memory tempEmptyStringTest = bytes(source);\n    if (tempEmptyStringTest.length == 0) {\n        return 0x0;\n    }\n\n    assembly {\n        result := mload(add(source, 32))\n    }\n}\n\n  function stringToUint(string s) constant returns (uint result) {\n        bytes memory b = bytes(s);\n        uint i;\n        result = 0;\n        for (i = 0; i < b.length; i++) {\n            uint c = uint(b[i]);\n            if (c >= 48 && c <= 57) {\n                result = result * 10 + (c - 48);\n            }\n        }\n    }\n}\n",
  "sourcePath": "/home/markus/Documents/Programming/smartEscrow/ethereumSwap/contracts/EthereumSwap.sol",
  "compiler": {
    "name": "solc",
    "version": "0.4.25+commit.59dbf8f1.Emscripten.clang"
  },
  "schemaVersion": "3.0.1",
  "updatedAt": "2019-01-15T12:37:07.717Z",
  "devdoc": {
    "methods": {
      "__callback(bytes32,string)": {
        "params": {
          "_oraclizeID": "The byte represation of an Oraclize ID returned when query sent",
          "_result": "Result of the API call, contating the value of transaction to address"
        }
      },
      "depositEther(string,uint256)": {
        "params": {
          "_bitcoinAddress": "The Bitcoin Address to which a doner will pay money to",
          "_bitcoinAmountinSatoshi": "amount in Satoshi for which eth can withdrawed"
        }
      },
      "getTransaction(string,string)": {
        "params": {
          "_bitcoinAddress": "The Bitcoin Address to which a doner has payed money to",
          "_txHash": "The Bitcoin tx Hash prooving the doner payed money to it"
        }
      }
    },
    "title": "Smart Escrow Contract for swapping eth to btc using oracliize"
  },
  "userdoc": {
    "methods": {
      "__callback(bytes32,string)": {
        "notice": "Oraclize call back function invoking payout processpayable because oraclize call needs gas and this is preventing fraud"
      },
      "depositEther(string,uint256)": {
        "notice": "Deposited by sender how wants to get Bitcoin for his Ether assigning the contract valuesThe Bitcoin Address should  be new and not have any prior Transacitions (checked by UI) and should not exsist in mapping!"
      },
      "getTransaction(string,string)": {
        "notice": "Oraclize call, Bitcoin sender calls this function with his  and recipient Address which will invoke call back functionpayable because oraclize call needs gas and this is preventing fraud"
      }
    }
  }
}